:020000040000FA
:060000000CEF67F0120096
:020006001200E6
:08000800F2A402D07FEF65F0C5
:0A0010001200F28EF28CF18412004F
:06001A000C00ABCE00005B
:100020006F03000001000000A9CE00006B03000078
:10003000020000009FCE0000480300000A000000FC
:100040009BCE0000630300000400000099CE000076
:10005000690300000200000089CE0000620E00006B
:100060001000000088CE00006E03000001000000B8
:1000700086CE0000670300000200000082CE000070
:100080005F0300000400000075CE0000530F000065
:100090000D00000073CE00007D0E00000200000085
:0C00A00062CE0000510E000011000000B4
:0400AC00D9CFE6FFC3
:1000B000E1CFD9FFFE0EDB500301675D01E141D0C6
:1000C000FE0E675D1BE01C0EE66EE66A290EE66E0C
:1000D0000E0EE66E67511C0DF3CF14F0F4CF15F041
:1000E000000E1426010E152214C0E6FF15C0E6FF0F
:1000F000EFEC63F0166E060EE15E1650FE0EDBCFDF
:1001000067F3DB50FE0801E11CD01C0EE66EE66AC8
:10011000FE0EDB501C0DF3CF14F0F4CF15F0000EE3
:100120001426010E152214C0E6FF15C0E6FF290EA5
:10013000E66E0E0EE66EEFEC63F0166E060EE15EF6
:100140001650E552E7CFD9FF120003016751685DF1
:1001500001E156D0FE0E685D35E0270EE66EE66AD8
:10016000010EE66E020EE66E0E0EE66E68511C0D76
:10017000F3CFE9FFF4CFEAFF000EE926010EEA22F1
:100180001B0EE926000EEA22EF50E66E68511C0DA8
:10019000F3CFE9FFF4CFEAFF000EE926010EEA22D1
:1001A000EECF14F0EFCF15F0270E145E000E155AA7
:1001B00014C0E6FF15C0E6FF7FEC2CF0166E080EAB
:1001C000E15E165067C368F3270EE66EE66A44CE1A
:1001D000E6FF29CE14F02ACE15F0145E000E155A53
:1001E00014C0E6FF15C0E6FF010EE66E020EE66ED5
:1001F0000E0EE66E7FEC2CF0166E080EE15E1650C9
:100200001200D9CFE6FFE1CFD9FF0B0EE126C00ED9
:10021000F36E090EF3CFDBFF100EF36E0A0EF3CF71
:10022000DBFF0E01005101110FE155EC46F006C055
:1002300000FE07C001FEFF0E0E010017070E01179A
:10024000000E0027040E01233C0EE66EE66AE66A05
:10025000C40EE66E020EE66E3DEC64F0146E050E02
:10026000E15E1450010EDB6ADF6ADF50146E156A1E
:10027000090E145C000E155801E3BFD0DFCFE6FF76
:1002800015DFE552DF50060DF3CFF6FFF4CFF7FF91
:100290008A0EF626CD0EF722F62A000EF722080067
:1002A000080EF5CFDBFFDF50060DF3CFF6FFF4CFDE
:1002B000F7FF8A0EF626CD0EF722020EF626000E66
:1002C000F7220900020EF5CFDBFF0A00030EF5CF7F
:1002D000DBFFDF50060DF3CFF6FFF4CFF7FF8A0EFA
:1002E000F626CD0EF722040EF626000EF7220900A0
:1002F000040EF5CFDBFF0A00050EF5CFDBFF080E7D
:10030000DB5001E079D0090EDBCF08F00A0EDBCF1D
:1003100009F0060E08C0DBFF070E09C0DBFF020E66
:10032000DBCF16F0030EDBCF17F0270E1626000EDC
:100330001722010E1626000E1722040EDB5016247B
:10034000146E050EDB501720156E010E1426000EDC
:100350001522D950090FE96EDACFEAFF1450EE26C4
:100360001550ED22090EDBCF14F00A0EDBCF15F08D
:10037000166A176AD880FC0E14541F0E1554000E0E
:100380001654000E175401E2EDD7080EDBCF44FEE1
:10039000060EDBCF29FE070EDBCF2AFE270E0E014D
:1003A0002927000E2A23020EDB5029252B6F030E6E
:1003B000DB502A212C6F010E2B27000E2C23040E5C
:1003C000DB502B252D6F050EDB502C212E6F0D0ED3
:1003D0003F6F4097BADEDF50060DF3CFF6FFF4CF44
:1003E000F7FF8A0EF626CD0EF7220800F5CF28FE7D
:1003F0009CEC1FF0DF2A39D7FFD70B0EE15C02E23D
:10040000E16AE552E16EE552E7CFD9FF1200D9CF9C
:10041000E6FFE1CFD9FFE652DF6ADF50146E156ABE
:10042000090E145C000E155801E3D1D0DFCFE6FFB2
:100430003DDEE5520D0E0E013F5D01E0C6D085DECA
:10044000F70EDB500E01285D01E0BFD0180E256FBE
:10045000020E266FFA0EDB5010E1F80EDBCF12FE13
:10046000F90EDBCF13FE4087040E3F6FF80EDBCF93
:1004700042FEF90EDBCF43FEA6D0000E005D040E57
:10048000015906E3880ED8800055130E015503E28A
:10049000006B040E016F00CE12FE01CE13FE002B86
:1004A000000E0123F80EDBCF10FEF90EDBCF11FE9C
:1004B000E8EC64F006C037FE07C038FE08C039FE1D
:1004C00009C03AFE0E014089FA0EDB50040A34E0FE
:1004D000070A01E078D0FB0EDBCF18F0FC0EDBCF73
:1004E00019F0FD0EDB501824166EFE0EDB5019209D
:1004F000176EF80EDB501624146EF90EDB50172021
:10050000156E14501219426F15501319436FFB0EDC
:10051000DBCF18FEFC0EDBCF19FEFD0EDBCF1AFE83
:10052000FE0EDBCF1BFE276B270E026F036B046BE7
:10053000056B020E3F6F47D0FB0EDBCFE9FFFC0ED1
:10054000DBCFEAFF020EE926000EEA22EECF18F01A
:10055000EFCF19F0FB0EDBCFE9FFFC0EDBCFEAFF9C
:100560001850EE24166E1950EE20176EF80EDB5060
:100570001624146EF90EDB501720156E1450121944
:10058000426F15501319436F0A0EE66EE66AFB0EB2
:10059000DBCFE6FFFC0EDBCFE6FF180EE66E0E0E9D
:1005A000E66EEFEC63F0146E060EE15E14500E0181
:1005B000050E3F6F010EE66E020EE66E9DEC17F023
:1005C000E552E55200D0DF5004D0DF2A26D7FE0ED8
:1005D00000D0E552E552E7CFD9FF1200D9CFE6FFB0
:1005E000E1CFD9FFFE0EDB50146E156A090E145CC4
:1005F000000E155802E3010E0DD0FE0EDBCFE6FF14
:1006000055DDE5520E0141A903D04199010E02D0FA
:10061000000E00D0E552E7CFD9FF1200D9CFE6FF98
:10062000E1CFD9FFFE0EDB50146E156A090E145C83
:10063000000E155802E3000E0DD0FE0EDBCFE6FFD4
:1006400035DDE552070E0E013F5D02E0000E01D0E0
:10065000010E00D0E552E7CFD9FF1200D9CFE6FF57
:10066000E1CFD9FFFE0EDB50146E156A090E145C43
:10067000000E155801E35ED0FE0EDBCFE6FF16DD5F
:10068000E55233CE35FE34CE36FE0E013F51080A18
:1006900047E0010A45E0050A43E0020A3EE0050A98
:1006A00026E00D0A0EE0010A0CE0070A07E0020A44
:1006B00005E0010A03E0060A01E032D09CEC1FF0DD
:1006C00039D0010EE66E110EE66E9DEC17F0E55284
:1006D000E5520E011451151101E106D00E512F19EA
:1006E00002E10F513019EDE1080E3F6F23D0010EEA
:1006F000E66E110EE66E9DEC17F0E552E5520E0126
:100700001451151101E106D00E512F1902E10F51BC
:100710003019EDE10C0E3F6F0DD00D0E3F6F0AD07A
:10072000E66A140EE66E9DEC17F0E552E5529CEC7D
:100730001FF000D0E552E7CFD9FF1200D9CFE6FF76
:10074000E1CFD9FFFE0EDB50146E156A090E145C62
:10075000000E155801E30CD0FE0EDBCFE6FFA6DC41
:10076000E5520E014097FE0EDBCFE6FF77DFE55244
:10077000E552E7CFD9FF1200D9CFE6FFE1CFD9FF8D
:10078000FE0EDB50146E156A090E145C000E15582F
:1007900003E3F36AF46A24D0FE0EDBCFE6FF86DCC7
:1007A000E552D3DC0A0EE66EE66A180EE66E0E0E11
:1007B000E66E450EE66E0E0EE66EEFEC63F0146E1E
:1007C000060EE15E145010CE4FFE11CE50FE450EC7
:1007D000146E0E0E156E14C0F3FF15C0F4FF00D09A
:1007E000E552E7CFD9FF1200D9CFE6FFE1CFD9FF1D
:1007F000FE0EDB50146E156A090E145C000E1558BF
:1008000001E315D0FE0EDBCFE6FF50DCE5529DDCA8
:100810000E010E512F1902E10F51301908E0010E9F
:10082000E66E100EE66E9DEC17F0E552E552E552CD
:10083000E7CFD9FF1200D9CFE6FFE1CFD9FFE652CB
:10084000FE0EDB50146E156A090E145C000E15586E
:1008500003E3F36AF46A3FD0FE0EDBCFE6FF26DC4B
:10086000E5523FCEDFFF070EDF5C06E00B0EDF5CDC
:1008700003E0F36AF46A2FD00E0131512F5D32513B
:1008800030591BE329512B5D166E2C512A55176EDA
:100890001606000E175A31512F5D186E3051325521
:1008A000196E1850165C146E19501758156E14C036
:1008B000F3FF15C0F4FF0FD00ED02F51315D146E31
:1008C00032513055156E1406000E155A14C0F3FF40
:1008D00015C0F4FF00D0E552E552E7CFD9FF120072
:1008E000D9CFE6FFE1CFD9FF020EE126FE0EDB50A5
:1008F000146E156A090E145C000E155802E3000E02
:100900008DD0FE0EDBCFE6FF56EC00F0E552FE0E7A
:10091000DBCFE6FF90DFE552F3CFDEFFF4CFDDFF64
:10092000D9CFE9FFDACFEAFFEE50ED1003E1000E78
:1009300075D00ED0D9CFE9FFDACFEAFF010EEE185D
:1009400001E1ED5005E1FE0EDBCFE6FF4DDFE552A4
:100950000E014151010B19E1DECF14F0DDCF15F08E
:1009600029512B5D166E2C512A55176ED8901732CF
:1009700016321450165C1550175807E3FE0EDBCFE5
:10098000E6FF32DFE5520E014181010EE66EE66AB6
:10099000E66ED950FD0FE66EFF0EDA20E66E44CE0D
:1009A000E6FF2FCEE6FF30CEE6FF7FEC2CF0146E94
:1009B000080EE15E14500E012F2B000E30232B5138
:1009C0002F5D2C51305904E329CE2FFE2ACE30FE64
:1009D000D9CFE9FFDACFEAFF010EEE1801E1ED50C1
:1009E00006E1FE0EDBCFE6FFFFDEE55215D040BB91
:1009F00013D0408B0FEC65F006C014F007C015F063
:100A0000166A176A060E1426000E152216221722E1
:100A100014C03BFE15C03CFE010E00D0146E020E49
:100A2000E15C02E2E16AE552E16E1450E552E7CF83
:100A3000D9FF1200D9CFE6FFE1CFD9FF060EE1269C
:100A4000040EDB6A050EDB6AFE0EDB50146E156ABF
:100A5000090E145C000E155803E3F36AF46A0FD113
:100A6000FE0EDBCFE6FF56EC00F0E552FE0EDBCFCC
:100A7000E6FFE1DEE552020EF3CFDBFF030EF4CF1B
:100A8000DBFFD950020FE96EDACFEAFFEE50ED102E
:100A900008E1FE0EDBCFE6FFA7DEE552F36AF46A5B
:100AA000EED0020EDBCFDEFFDBCFDDFFDBCF14F0BD
:100AB000030EDBCF15F0FA0EDBCF16F0FB0EDBCF0B
:100AC00017F01450165C1550175805E2FA0EDBCFDC
:100AD000DEFFDBCFDDFF0E014151010B1BE1020EFA
:100AE000DBCF14F0030EDBCF15F029512B5D166E12
:100AF0002C512A55176ED890173216321450165CA6
:100B00001550175807E3FE0EDBCFE6FF6DDEE5520A
:100B10000E014181DE502F250001146EDD500E01C3
:100B200030210001156E0E012B51145C2C5115580B
:100B300048E32F512B5D146E2C513055156E040E69
:100B400014C0DBFF050E15C0DBFF040EDBCFE6FF94
:100B5000050EDBCFE6FF010EE66EFC0EDBCFE6FFF7
:100B6000FD0EDBCFE6FF44CEE6FF2FCEE6FF30CE14
:100B7000E6FF7FEC2CF0146E080EE15E1450040EBC
:100B8000DBCF14F0050EDBCF15F0D950FC0FE96E6A
:100B9000FF0EDA20EA6E1450EE261550ED22040EF8
:100BA000DBCF14F0050EDBCF15F0D9CFE9FFDACF9C
:100BB000EAFF1450EE5E1550ED5A29CE2FFE2ACED4
:100BC00030FEDECFE6FFDDCFE6FF010EE66EFC0E67
:100BD000DBCFE6FFFD0EDBCFE6FF44CEE6FF2FCEF8
:100BE000E6FF30CEE6FF7FEC2CF0146E080EE15EDF
:100BF0001450D9CFE9FFDACFEAFFEE500E012F27CC
:100C0000EE503023020EDBCF14F0030EDBCF15F0D5
:100C1000FA0EDBCF16F0FB0EDBCF17F01450165C8C
:100C20001550175806E3FE0EDBCFE6FFDDDDE5527B
:100C300015D040BB13D0408B0FEC65F006C014F00C
:100C400007C015F0166A176A060E1426000E152244
:100C50001622172214C03BFE15C03CFE040EDBCF4B
:100C600016F0050EDBCF17F0DE501624146EDD50A3
:100C70001720156E14C0F3FF15C0F4FF00D0060E48
:100C8000E15C02E2E16AE552E16EE552E7CFD9FFAD
:100C90001200D9CFE6FFE1CFD9FF060EE126040E00
:100CA000DB6A050EDB6AFE0EDB50146E156A090E58
:100CB000145C000E155803E3F36AF46A0BD1FE0EC0
:100CC000DBCFE6FF56EC00F0E552FE0EDBCFE6FF91
:100CD000B2DDE552020EF3CFDBFF030EF4CFDBFFF4
:100CE000D950020FE96EDACFEAFFEE50ED1008E1BD
:100CF000FE0EDBCFE6FF78DDE552F36AF46AEAD058
:100D00000E014151010B1BE1020EDBCF14F0030E6B
:100D1000DBCF15F029512B5D166E2C512A55176E1D
:100D2000D890173216321450165C1550175807E336
:100D3000FE0EDBCFE6FF58DDE5520E014181020ECB
:100D4000DBCFDEFFDBCFDDFFDBCF14F0030EDBCF2D
:100D500015F0FA0EDBCF16F0FB0EDBCF17F01450B8
:100D6000165C1550175805E2FA0EDBCFDEFFDBCF1D
:100D7000DDFFDE502F250001146EDD500E01302105
:100D80000001156E0E012B51145C2C51155846E3D1
:100D90002F512B5D146E2C513055156E040E14C05E
:100DA000DBFF050E15C0DBFF040EDBCFE6FF050EF3
:100DB000DBCFE6FFFC0EDBCFE6FFFD0EDBCFE6FF71
:100DC00044CEE6FF2FCEE6FF30CEE6FF24EC2DF03A
:100DD000146E070EE15E1450040EDBCF14F0050E06
:100DE000DBCF15F0D950FC0FE96EFF0EDA20EA6E6A
:100DF0001450EE261550ED22040EDBCF14F0050E34
:100E0000DBCF15F0D9CFE9FFDACFEAFF1450EE5E61
:100E10001550ED5A29CE2FFE2ACE30FEDECFE6FF4A
:100E2000DDCFE6FFFC0EDBCFE6FFFD0EDBCFE6FFFE
:100E300044CEE6FF2FCEE6FF30CEE6FF24EC2DF0C9
:100E4000146E070EE15E1450D9CFE9FFDACFEAFF46
:100E5000EE500E012F27EE503023020EDBCF14F0A0
:100E6000030EDBCF15F0FA0EDBCF16F0FB0EDBCF57
:100E700017F01450165C1550175806E3FE0EDBCF22
:100E8000E6FFB2DCE55215D040BB13D0408B0FEC2F
:100E900065F006C014F007C015F0166A176A060E52
:100EA0001426000E15221622172214C03BFE15C070
:100EB0003CFE040EDBCF16F0050EDBCF17F0DE5044
:100EC0001624146EDD501720156E14C0F3FF15C0E4
:100ED000F4FF00D0060EE15C02E2E16AE552E16E49
:100EE000E552E7CFD9FF1200D9CFE6FFE1CFD9FF16
:100EF000FC0EDBCF16F0FD0EDBCF17F016C0E6FFC1
:100F000017C0E6FFFC0EDBCFE6FFFD0EDBCFE6FFF2
:100F100057EC64F0E552E552F3CF18F0F4CF19F036
:100F200018C0E6FF19C0E6FFFC0EDBCFE6FFFD0EA2
:100F3000DBCFE6FFFE0EDBCFE6FF7CDD1A6E050E93
:100F4000E15E1A50E552E7CF17F0E552E7CF16F011
:100F50001650F324146E1750F420156E14C0F3FFCE
:100F600015C0F4FF00D0E552E7CFD9FF1200D9CF6A
:100F7000E6FFE1CFD9FFFC0EDBCF16F0FD0EDBCF95
:100F800017F016C0E6FF17C0E6FFFC0EDBCF1AF025
:100F9000FD0EDBCF1BF01C6A1AC0E6FF1BC0E6FF8C
:100FA0001CC0E6FF65EC64F0E552E552E55207C06F
:100FB00018F008C019F018C0E6FF19C0E6FFFC0ED3
:100FC000DBCFE6FFFD0EDBCFE6FFFE0EDBCFE6FF5D
:100FD00060DE1D6E050EE15E1D50E552E7CF17F095
:100FE000E552E7CF16F01650F324146E1750F42094
:100FF000156E14C0F3FF15C0F4FF00D0E552E7CF23
:10100000D9FF1200D9CFE6FFE1CFD9FF040EE126C8
:10101000FE0EDB50146E156A090E145C000E155896
:1010200003E3F36AF46A31D0FE0EDBCFE6FF56EC41
:1010300000F0E5520E0129512B5D146E2C512A55FA
:10104000156E1406000E155A020E14C0DBFF030EB7
:1010500015C0DBFFFE0EDBCFE6FF1BEC04F0E55214
:10106000F3CFDEFFF4CFDDFF020EDBCF16F0030E71
:10107000DBCF17F0DE50165C146EDD501758156E7E
:1010800014C0F3FF15C0F4FF00D0040EE15C02E2CF
:10109000E16AE552E16EE552E7CFD9FF1200D9CF00
:1010A000E6FFE1CFD9FFFE0EDBCFE6FF1ED8E5520B
:1010B000F3CF14F0F4CF15F01450151012E0FE0E1B
:1010C000DBCFE6FF56EC00F0E55233CE35FE34CEF2
:1010D00036FE010EE66E100EE66E9DEC17F0E55240
:1010E000E552E552E7CFD9FF1200D9CFE6FFE1CFB5
:1010F000D9FFFE0EDB50146E156A090E145C000E4B
:10110000155803E3F36AF46A33D0FE0EDBCFE6FF33
:1011100056EC00F0E5520E013551335D365134592D
:101120000CE33551335D146E34513655156E14C0D1
:10113000F3FF15C0F4FF1CD01BD035512D5D166E8A
:101140002E513655176E010E1626000E17222B5102
:10115000335D186E34512C55196E16501824146EC8
:1011600017501920156E14C0F3FF15C0F4FF00D0FE
:10117000E552E7CFD9FF1200D9CFE6FFE1CFD9FF83
:10118000020EE126FE0EDBCFE6FFAFDFE552F3CF26
:10119000DEFFF4CFDDFFD9CFE9FFDACFEAFFEE5073
:1011A000ED1002E1000E54D0FE0EDBCFE6FF56EC50
:1011B00000F0E552D950FC0FE96EFF0EDA20EA6E1E
:1011C000EE50ED1016E0010EE66EE66A44CEE6FF44
:1011D00035CEE6FF36CEE6FFE66EFC0EDBCFE6FF51
:1011E000FD0EDBCFE6FF7FEC2CF0146E080EE15E07
:1011F00014500E01352B000E362335512D5D36511E
:101200002E5904E22BCE35FE2CCE36FED9CFE9FF87
:10121000DACFEAFF010EEE1801E1ED5002E141855F
:1012200015D040BB13D0408B0FEC65F006C014F016
:1012300007C015F0166A176A1F0E1426000E152235
:101240001622172214C03BFE15C03CFE010E00D032
:10125000146E020EE15C02E2E16AE552E16E1450A6
:10126000E552E7CFD9FF1200D9CFE6FFE1CFD9FF92
:10127000040EE126020EDB6A030EDB6AFE0EDBCFF4
:10128000E6FF33DFE552F3CFDEFFF4CFDDFFD9CF4A
:10129000E9FFDACFEAFFEE50ED1003E1F36AF46AFA
:1012A000FFD0FE0EDBCFE6FF56EC00F0E552FA0E63
:1012B000DBCF14F0FB0EDBCF15F0DECF16F0DDCF69
:1012C00017F01450165C155017580AE2D9CFE9FFF1
:1012D000DACFEAFFFA0EEECFDBFFFB0EEDCFDBFF3E
:1012E000FA0EDB500E0135250001146EFB0EDB50AB
:1012F0000E0136210001156E0E0114502D5D1550A2
:101300002E5957E235512D5D146E2E513655156EFE
:10131000010E1426000E1522020E14C0DBFF030E70
:1013200015C0DBFFD950FC0FE96EFF0EDA20EA6E24
:10133000EE50ED102AE0020EDBCFE6FF030EDBCF0E
:10134000E6FF44CEE6FF35CEE6FF36CEE6FF010EE1
:10135000E66EFC0EDBCFE6FFFD0EDBCFE6FF7FEC9B
:101360002CF0146E080EE15E1450020EDBCF14F068
:10137000030EDBCF15F0D950FC0FE96EFF0EDA201B
:10138000EA6E1450EE261550ED22020EDBCF14F05B
:10139000030EDBCF15F0D950FA0FE96EFF0EDA20FD
:1013A000EA6E1450EE5E1550ED5A2BCE35FE2CCE63
:1013B00036FED950FC0FE96EFF0EDA20EA6EEE50D1
:1013C000ED101AE0FA0EDBCFE6FFFB0EDBCFE6FFF7
:1013D00044CEE6FF35CEE6FF36CEE6FF010EE66EE2
:1013E000FC0EDBCFE6FFFD0EDBCFE6FF7FEC2CF043
:1013F000146E080EE15E1450FA0EDBCF08F0FB0EFF
:10140000DBCF09F008500E01352709503623020EB4
:10141000DBCF14F0030EDBCF15F0D950FA0FE96ED5
:10142000FF0EDA20EA6E1450EE261550ED22DECFC4
:1014300016F0DDCF17F0FA0EDB50165C146EFB0EC3
:10144000DB501758156EFA0EDBCF18F0FB0EDBCF12
:1014500019F01450185C1550195802E3418515D045
:1014600040BB13D0408B0FEC65F006C014F007C0F2
:1014700015F0166A176A1F0E1426000E1522162282
:10148000172214C03BFE15C03CFEFA0EDBCF14F051
:10149000FB0EDBCF15F014C0F3FF15C0F4FF00D036
:1014A000040EE15C02E2E16AE552E16EE552E7CF4B
:1014B000D9FF1200D9CFE6FFE1CFD9FF040EE12614
:1014C000FE0EDB50146E156A090E145C000E1558E2
:1014D00003E3F36AF46A2DD0FE0EDBCFE6FF56EC91
:1014E00000F0E5520E012B512D5D146E2E512C553E
:1014F000156E020E14C0DBFF030E15C0DBFFFE0EDF
:10150000DBCFE6FFF2DDE552F3CFDEFFF4CFDDFF08
:10151000020EDBCF16F0030EDBCF17F0DE50165CA9
:10152000146EDD501758156E14C0F3FF15C0F4FF8C
:1015300000D0040EE15C02E2E16AE552E16EE552A0
:10154000E7CFD9FF1200D9CFE6FFE1CFD9FF060ED2
:10155000E126FE0EDB50146E156A090E145C000EB7
:10156000155809E2D950FA0FE96EFF0EDA20EA6E3B
:10157000EE50ED1003E1F36AF46AFDD0FE0EDBCF0E
:10158000E6FF56EC00F0E552FE0EDBCFE6FFADDDE8
:10159000E552020EF3CFDBFF030EF4CFDBFFFA0EB2
:1015A000DBCF16F0FB0EDBCF17F0F80EDB50162466
:1015B000146EF90EDB501720156E020EDBCF18F0FB
:1015C000030EDBCF19F01450185C1550195814E2B3
:1015D000020EDBCF16F0030EDBCF17F0F80EDB5058
:1015E000165C146EF90EDB501758156EFA0E14C007
:1015F000DBFFFB0E15C0DBFFF80EDB500E013525BF
:101600000001146EF90EDB500E0136210001156E3B
:1016100014C0DEFF15C0DDFFDECF14F0DDCF15F006
:101620000E0114502D5D15502E5912E22B512D5DD7
:10163000146E2E512C55156E010E1426000E152217
:10164000D9CFE9FFDACFEAFF1450EE5E1550ED5A1C
:10165000DE502D5D146EDD502E59156E010E1426D0
:10166000000E1522040E14C0DBFF050E15C0DBFFB3
:10167000FA0EDBCF14F0FB0EDBCF15F0040EDBCF40
:1016800016F0050EDBCF17F01450165C15501758E6
:101690001BE3FA0EDBCFE6FFFB0EDBCFE6FF44CE0B
:1016A000E6FFDECFE6FFDDCFE6FF010EE66EFC0EC5
:1016B000DBCFE6FFFD0EDBCFE6FF7FEC2CF0146EF8
:1016C000080EE15E14504CD0040EDBCFE6FF050E91
:1016D000DBCFE6FF44CEE6FFDECFE6FFDDCFE6FF61
:1016E000010EE66EFC0EDBCFE6FFFD0EDBCFE6FF64
:1016F0007FEC2CF0146E080EE15E1450FA0EDBCF76
:1017000016F0FB0EDBCF17F0040EDB50165C146EE8
:10171000050EDB501758156E14C0E6FF15C0E6FF26
:1017200044CEE6FF2BCEE6FF2CCEE6FF010EE66EA2
:10173000040EDBCF1AF0050EDBCF1BF0FC0EDB50E6
:101740001A24186EFD0EDB501B20196E18C0E6FF20
:1017500019C0E6FF7FEC2CF01C6E080EE15E1C50F9
:10176000FA0EDBCF14F0FB0EDBCF15F014C0F3FF45
:1017700015C0F4FF00D0060EE15C02E2E16AE5521A
:10178000E16EE552E7CFD9FF1200D9CFE6FFE1CFF6
:10179000D9FFE652FC0EDBCFE6FFFD0EDBCFE6FF06
:1017A000010EE66EE66AD9CFE6FFDACFE6FFFE0E5F
:1017B000DBCFE6FFC8DE146E070EE15E1450DF508B
:1017C00000D0E552E552E7CFD9FF1200D9CFE6FFAE
:1017D000E1CFD9FF300EE126FE0EDB50146E156A04
:1017E000090E145C000E155809E2D950FA0FE96E83
:1017F000FF0EDA20EA6EEE50ED1003E1F36AF46AB0
:10180000F2D2FE0EDBCFE6FF56EC00F0E552FE0E04
:10181000DBCFE6FF6ADCE552F3CF16F0F4CF17F02A
:10182000F80EDB50165C146EF90EDB501758156E6F
:10183000020E14C0DBFF030E15C0DBFF020EDBCF70
:1018400014F0030EDBCF15F0FA0EDBCF16F0FB0E13
:10185000DBCF17F01650145C1750155803E2F368ED
:10186000F468C1D2D950F60FE96EFF0EDA20EA6EA5
:10187000EE50ED101DE0020EDBCF14F0030EDBCFB7
:1018800015F0F60EDBCF16F0F70EDBCF17F0145085
:10189000165C155017580CE2F60EDBCF08F0F70E69
:1018A000DBCF09F0020E08C0DBFF030E09C0DBFF2F
:1018B000F80EDB500E0135250001146EF90EDB50D9
:1018C0000E0136210001156E060E14C0DBFF070E57
:1018D00015C0DBFF060EDBCF14F0070EDBCF15F0D3
:1018E0000E0114502D5D15502E5913E22B512D5D14
:1018F000146E2E512C55156E010E1426000E152255
:10190000D950060FE96EDACFEAFF1450EE5E15509B
:10191000ED5A060EDBCFDEFFDBCFDDFFDB502D5DAA
:101920000001146E070EDB500E012E590001156EDA
:10193000010E1426000E1522040E14C0DBFF050E46
:1019400015C0DBFFF80EDBCF08F0F90EDBCF09F096
:10195000060E08C0DBFF070E09C0DBFFFA0EDBCF67
:1019600008F0FB0EDBCF09F0080E08C0DBFF090E04
:1019700009C0DBFFFC0EDBCF08F0FD0EDBCF09F06A
:101980000A0E08C0DBFF0B0E09C0DBFFFC0EDBCF2D
:10199000E9FFDB2AFD0EDBCFEAFF01E3DB2A0D0EB8
:1019A000EFCFDBFF0F0EDB6AF50EDB5016E0610EAA
:1019B000F36E0D0EDBCFF4FFF350F45C0EE30D0E6F
:1019C000DB507A080AE3E00E146E0D0EDBCFE7FF62
:1019D0001450E7260D0EE7CFDBFF200EF36E0E0E40
:1019E000F3CFDBFFDBCF14F0040EDBCF15F0050ED9
:1019F000DBCF16F01450155C000E165806E2040EEC
:101A0000DB50E76E0E0EE7CFDBFF0E0EDBCF14F0E0
:101A1000020EDBCF15F0030EDBCF16F01450155C71
:101A2000000E165806E2020EDB50E76E0E0EE7CFF0
:101A3000DBFF0E0EDBCFE6FFE66A44CEE6FFDECF2D
:101A4000E6FFDDCFE6FF010EE66ED950100FE66E21
:101A5000000EDA20E66E7FEC2CF0146E080EE15ECC
:101A600014500E0EDB50DE26000EDD220E0EDB5073
:101A7000146E156AD950040FE96EDACFEAFF1450DC
:101A8000EE5E1550ED5AD950040FE96EDACFEAFF39
:101A9000EE50ED1008E12BCEDEFF2CCEDDFF040E64
:101AA000DB68050EDB68F50EDB5001E1E5D00C0EBE
:101AB000DB6A0E0EDB50F36E0C0EDBCFF4FFF3503F
:101AC000F45C01E3D8D0D950100F156EDACF16F0C0
:101AD0000C0EDB500F011524E96E000E1620EA6E85
:101AE000EFCF14F0610E145C1FE3D950100F176E86
:101AF000DACF18F00C0EDB501724E96E000E182018
:101B0000EA6EEF507A0810E3E00E166ED950100F0F
:101B1000146EDACF15F00C0EDB501424E96E000EB3
:101B20001520EA6E1650EF26D950100F146EDACF3A
:101B300015F00C0EDB501424E96E000E1520EA6E31
:101B4000EF50F36E0D0EDB50F35C53E1FA0EDB0643
:101B5000DBCF14F0FB0E01E2DB06DBCF15F01450F7
:101B600015101FE1060EDBCF18F0070EDBCF19F0C2
:101B7000080EDB50185C166E090EDB501958176EF4
:101B80000C0EDB5000011624146E000E1720156E8B
:101B9000010E1426000E152214C0F3FF15C0F4FF29
:101BA00022D1FC0EDBCFE9FFDB2AFD0EDBCFEAFF03
:101BB00001E3DB2A0D0EEFCFDBFF010EF36E0F0EFC
:101BC000F3CFDBFF610EF36E0D0EDBCFF4FFF350AE
:101BD000F45C0EE30D0EDB507A080AE3E00E146E9F
:101BE0000D0EDBCFE7FF1450E7260D0EE7CFDBFF2E
:101BF0003FD0080EDBCF08F0090EDBCF09F0FA0E5C
:101C000008C0DBFFFB0E09C0DBFF0F0EDB5030E02E
:101C10000A0EDBCF08F00B0EDBCF09F0FC0E08C07C
:101C2000DBFFFD0E09C0DBFFFC0EDBCFE9FFDB2A8B
:101C3000FD0EDBCFEAFF01E3DB2A0D0EEFCFDBFF6A
:101C4000610EF36E0D0EDBCFF4FFF350F45C0EE388
:101C50000D0EDB507A080AE3E00E146E0D0EDBCF9A
:101C6000E7FF1450E7260D0EE7CFDBFF0F0EDB6A10
:101C70000C0EDB2A1ED788D00C0EDB6A0E0EDB5052
:101C8000F36E0C0EDBCFF4FFF350F45C01E37CD079
:101C9000D950100F146EDACF15F00C0EDB500F0177
:101CA0001424E96E000E1520EA6EEF50F36E0D0E4F
:101CB000DB50F35C3DE1FA0EDB06DBCF14F0FB0EEC
:101CC00001E2DB06DBCF15F0145015101FE1060E04
:101CD000DBCF18F0070EDBCF19F0080EDB50185CD5
:101CE000166E090EDB501958176E0C0EDB500001F2
:101CF0001624146E000E1720156E010E1426000E09
:101D0000152214C0F3FF15C0F4FF6DD0FC0EDBCF1D
:101D1000E9FFDB2AFD0EDBCFEAFF01E3DB2A0D0E34
:101D2000EFCFDBFF010EF36E0F0EF3CFDBFF29D0F9
:101D3000080EDBCF08F0090EDBCF09F0FA0E08C061
:101D4000DBFFFB0E09C0DBFF0F0EDB501AE00A0EB3
:101D5000DBCF08F00B0EDBCF09F0FC0E08C0DBFF79
:101D6000FD0E09C0DBFFFC0EDBCFE9FFDB2AFD0E19
:101D7000DBCFEAFF01E3DB2A0D0EEFCFDBFF0F0E17
:101D8000DB6A0C0EDB2A7AD70E0EDB50146E156A56
:101D9000D950020FE96EDACFEAFF1450EE5E15500B
:101DA000ED5A020EDBCF14F0030EDBCF15F0FA0E66
:101DB000DBCF16F0FB0EDBCF17F01650145C17507C
:101DC000155803E2F368F4680ED00E0EDB50146E63
:101DD000156AD950060FE96EDACFEAFF1450EE26E5
:101DE0001550ED22FAD5300EE15C02E2E16AE552CF
:101DF000E16EE552E7CFD9FF1200D9CFE6FFE1CF80
:101E0000D9FF300EE126FE0EDB50146E156A090E66
:101E1000145C000E155809E2D950FA0FE96EFF0E56
:101E2000DA20EA6EEE50ED1003E1F36AF46AF8D2BC
:101E3000FE0EDBCFE6FF56EC00F0E552FE0EDBCFE8
:101E4000E6FF75EC08F0E552F3CF16F0F4CF17F08B
:101E5000F80EDB50165C146EF90EDB501758156E39
:101E6000020E14C0DBFF030E15C0DBFF020EDBCF3A
:101E700014F0030EDBCF15F0FA0EDBCF16F0FB0EDD
:101E8000DBCF17F01650145C1750155803E2F368B7
:101E9000F468C6D2D950F60FE96EFF0EDA20EA6E6A
:101EA000EE50ED101DE0020EDBCF14F0030EDBCF81
:101EB00015F0F60EDBCF16F0F70EDBCF17F014504F
:101EC000165C155017580CE2F60EDBCF08F0F70E33
:101ED000DBCF09F0020E08C0DBFF030E09C0DBFFF9
:101EE000F80EDB500E0135250001146EF90EDB50A3
:101EF0000E0136210001156E060E14C0DBFF070E21
:101F000015C0DBFF060EDBCF14F0070EDBCF15F09C
:101F10000E0114502D5D15502E5913E22B512D5DDD
:101F2000146E2E512C55156E010E1426000E15221E
:101F3000D950060FE96EDACFEAFF1450EE5E155065
:101F4000ED5A060EDBCFDEFFDBCFDDFFDB502D5D74
:101F50000001146E070EDB500E012E590001156EA4
:101F6000010E1426000E1522040E14C0DBFF050E10
:101F700015C0DBFFF80EDBCF08F0F90EDBCF09F060
:101F8000060E08C0DBFF070E09C0DBFFFA0EDBCF31
:101F900008F0FB0EDBCF09F0080E08C0DBFF090ECE
:101FA00009C0DBFFFC0EDBCF08F0FD0EDBCF09F034
:101FB0000A0E08C0DBFF0B0E09C0DBFFFC0EDBCFF7
:101FC000F6FFDB2AFD0EDBCFF7FF01E3DB2A08007B
:101FD0000D0EF5CFDBFF0F0EDB6AF50EDB5016E0C2
:101FE000610EF36E0D0EDBCFF4FFF350F45C0EE3E5
:101FF0000D0EDB507A080AE3E00E146E0D0EDBCFF7
:10200000E7FF1450E7260D0EE7CFDBFF200EF36E3F
:102010000E0EF3CFDBFFDBCF14F0040EDBCF15F099
:10202000050EDBCF16F01450155C000E165806E2B4
:10203000040EDB50E76E0E0EE7CFDBFF0E0EDBCF9C
:1020400014F0020EDBCF15F0030EDBCF16F01450A8
:10205000155C000E165806E2020EDB50E76E0E0EFF
:10206000E7CFDBFF0E0EDBCFE6FFE66A44CEE6FFEE
:10207000DECFE6FFDDCFE6FF010EE66ED950100F92
:10208000E66E000EDA20E66E7FEC2CF0146E080E81
:10209000E15E14500E0EDB50DE26000EDD220E0E29
:1020A000DB50146E156AD950040FE96EDACFEAFFDF
:1020B0001450EE5E1550ED5AD950040FE96EDACF88
:1020C000EAFFEE50ED1008E12BCEDEFF2CCEDDFF57
:1020D000040EDB68050EDB68F50EDB5001E1E7D08E
:1020E0000C0EDB6A0E0EDB50F36E0C0EDBCFF4FF32
:1020F000F350F45C01E3DAD0D950100F156EDACF4B
:1021000016F00C0EDB500F011524E96E000E1620A0
:10211000EA6EEFCF14F0610E145C1FE3D950100F7C
:10212000176EDACF18F00C0EDB501724E96E000E94
:102130001820EA6EEF507A0810E3E00E166ED950C0
:10214000100F146EDACF15F00C0EDB501424E96E6C
:10215000000E1520EA6E1650EF26D950100F146E9F
:10216000DACF15F00C0EDB501424E96E000E1520AA
:10217000EA6EEF50F36E0D0EDB50F35C54E1FA0E95
:10218000DB06DBCF14F0FB0E01E2DB06DBCF15F044
:10219000145015101FE1060EDBCF18F0070EDBCF31
:1021A00019F0080EDB50185C166E090EDB5019583A
:1021B000176E0C0EDB5000011624146E000E172053
:1021C000156E010E1426000E152214C0F3FF15C063
:1021D000F4FF26D1FC0EDBCFF6FFDB2AFD0EDBCFB2
:1021E000F7FF01E3DB2A08000D0EF5CFDBFF010E40
:1021F000F36E0F0EF3CFDBFF610EF36E0D0EDBCF30
:10220000F4FFF350F45C0EE30D0EDB507A080AE3A2
:10221000E00E146E0D0EDBCFE7FF1450E7260D0E17
:10222000E7CFDBFF40D0080EDBCF08F0090EDBCF95
:1022300009F0FA0E08C0DBFFFB0E09C0DBFF0F0E32
:10224000DB5031E00A0EDBCF08F00B0EDBCF09F0DC
:10225000FC0E08C0DBFFFD0E09C0DBFFFC0EDBCF70
:10226000F6FFDB2AFD0EDBCFF7FF01E3DB2A0800D8
:102270000D0EF5CFDBFF610EF36E0D0EDBCFF4FF1D
:10228000F350F45C0EE30D0EDB507A080AE3E00E27
:10229000146E0D0EDBCFE7FF1450E7260D0EE7CFCF
:1022A000DBFF0F0EDB6A0C0EDB2A1CD78AD00C0E6C
:1022B000DB6A0E0EDB50F36E0C0EDBCFF4FFF35037
:1022C000F45C01E37ED0D950100F146EDACF15F014
:1022D0000C0EDB500F011424E96E000E1520EA6E7F
:1022E000EF50F36E0D0EDB50F35C3EE1FA0EDB06B1
:1022F000DBCF14F0FB0E01E2DB06DBCF15F0145050
:1023000015101FE1060EDBCF18F0070EDBCF19F01A
:10231000080EDB50185C166E090EDB501958176E4C
:102320000C0EDB5000011624146E000E1720156EE3
:10233000010E1426000E152214C0F3FF15C0F4FF81
:102340006FD0FC0EDBCFF6FFDB2AFD0EDBCFF7FFF5
:1023500001E3DB2A08000D0EF5CFDBFF010EF36E63
:102360000F0EF3CFDBFF2AD0080EDBCF08F0090EEB
:10237000DBCF09F0FA0E08C0DBFFFB0E09C0DBFF64
:102380000F0EDB501BE00A0EDBCF08F00B0EDBCF8D
:1023900009F0FC0E08C0DBFFFD0E09C0DBFFFC0EE0
:1023A000DBCFF6FFDB2AFD0EDBCFF7FF01E3DB2AF5
:1023B00008000D0EF5CFDBFF0F0EDB6A0C0EDB2ADB
:1023C00078D70E0EDB50146E156AD950020FE96EE5
:1023D000DACFEAFF1450EE5E1550ED5A020EDBCF55
:1023E00014F0030EDBCF15F0FA0EDBCF16F0FB0E68
:1023F000DBCF17F01650145C1750155803E2F36842
:10240000F4680ED00E0EDB50146E156AD950060F0C
:10241000E96EDACFEAFF1450EE261550ED22F6D51C
:10242000300EE15C02E2E16AE552E16EE552E7CF8F
:10243000D9FF1200D9CFE6FFE1CFD9FFF80EDBCFED
:10244000E6FFF90EDBCFE6FFFA0EDBCFE6FFFB0E71
:10245000DBCFE6FFFC0EDBCFE6FF010EE66EE66AA1
:10246000D950FD0FE66EFF0EDA20E66EFE0EDBCFD2
:10247000E6FFE6EC0BF0146E0A0EE15E145000D09D
:10248000E552E7CFD9FF1200D9CFE6FFE1CFD9FF60
:10249000060EE126DF6ADF50146E156A090E145C21
:1024A000000E155801E377D3DFCFE6FF56EC00F0BE
:1024B000E552030EDB6A010EDB6A020EDB6A0E01D7
:1024C0004151020B03E14151040B12E0E1EC4EF0EB
:1024D00000090EE0100EF36E030EF3CFDBFF0E01CA
:1024E0004151040B01E0010EE76E010EE7CFDBFF67
:1024F0000E0140AB15D00FEC65F00E0106503B5DB0
:10250000146E07503C59156E153404E2145000083F
:10251000000E155405E3100EF36E030EF3CFDBFF30
:1025200040AD15D00FEC65F00E0106503D5D146E08
:1025300007503E59156E153404E214500008000E81
:10254000155405E3100EF36E030EF3CFDBFF0B0EF5
:102550003F5D17E10FEC65F00E0106503D5D146E16
:1025600007503E59156E153404E214500008000E51
:10257000155407E3110EF36E030EF3CFDBFF0C0EC1
:102580003F6F040E3F5D01E02ED1040EDB6A050EA5
:10259000DB6A040EDBCF14F0050EDBCF15F0030E63
:1025A000145C000E155801E31ED1040EDBCFE9FFC9
:1025B000050EDBCFEAFF140EEA02F3CFEAFFE902D1
:1025C000F3CFE9FFF450EA26C40EE926020EEA2210
:1025D000100EE926000EEA22EE50ED1001E103D1C3
:1025E000040EDBCFE9FF050EDBCFEAFF140EEA0293
:1025F000F3CFEAFFE902F3CFE9FFF450EA26C40E75
:10260000E926020EEA22100EE926000EEA22EECF9B
:1026100014F0EFCF15F04251141802E14351151890
:1026200001E0DBD0A5EC00F00A0EE66EE66A040ECF
:10263000DBCFE9FF050EDBCFEAFF140EEA02F3CF92
:10264000EAFFE902F3CFE9FFF450EA26C40EE926D7
:10265000020EEA22E9CF14F0EACF15F014C0E6FF2B
:1026600015C0E6FF180EE66E0E0EE66EEFEC63F098
:10267000166E060EE15E1650040EDBCFE9FF050E66
:10268000DBCFEAFF140EEA02F3CFEAFFE902F3CF51
:10269000E9FFF450EA26C40EE926020EEA220A0EE9
:1026A000E926000EEA22EECF10FEEDCF11FE040E59
:1026B000DBCFE9FF050EDBCFEAFF140EEA02F3CF12
:1026C000EAFFE902F3CFE9FFF450EA26C40EE92657
:1026D000020EEA220C0EE926000EEA22EECF0AFED6
:1026E000EECF0BFEEECF0CFEEFCF0DFE0E010A2B50
:1026F0000B230C230D231A511825166E1B5119217B
:10270000176E16501025146E17501121156E1450A7
:102710001219426F15501319436F120EF36E030E08
:10272000F3CFDBFF060E3F6F040EDBCF14F0050E78
:10273000DBCF15F0020ED8801456000E1556140E7D
:102740001502F3CF15F01402F3CF14F0F450152650
:1027500014C0E6FF15C0E6FF010EE66EE76E040E3C
:10276000DBCF16F0050EDBCF17F0E7501626000E74
:102770001722140E1702F3CF17F01602F3CF16F03C
:10278000F4501726C40E1626020E172216C0E6FFB6
:1027900017C0E6FF010EE66E040EDBCF18F0050E43
:1027A000DBCF19F0140E1902F3CF19F01802F3CF92
:1027B00018F0F4501926C40E1826020E192218C05B
:1027C000E6FF19C0E6FF7FEC2CF01A6E080EE15E02
:1027D0001A500201FC6BFD6B06D0040EDB2A050EBD
:1027E00001E3DB2AD6D6030EDB500DE0010EDB50F1
:1027F00002E0000E01D0010EE66E030EDBCFE6FF15
:102800009CDBE552E5520E0140B952D0070E3F5D08
:102810004EE1E8EC64F00E013751065C146E38515D
:102820000758156E39510858166E3A510958176EE7
:102830000001800E171401E0ACD10E014051070BCE
:10284000060819E14051080B01E0010EE76E030E86
:10285000E7CFDBFFDFCFE6FF2EEC03F0E552DFCF63
:10286000E6FF2EEC03F0E552030EDB5003E10E0110
:102870000E0E3F6F8ED1A5EC00F0020EE66E100E2C
:10288000E66E5BDBE552E552E8EC64F006C037FE2D
:1028900007C038FE08C039FE09C03AFE740E0E01AA
:1028A0003727350E3823060E3923000E3A2371D10F
:1028B000E8EC64F00E013751065C146E385107588D
:1028C000156E39510858166E3A510958176E0001A5
:1028D000800E171401E05DD1A5EC00F00E013F5110
:1028E0000C0A01E1E0D0060A01E1C6D0030A01E1C9
:1028F000B8D0010A01E19ED00F0A01E187D00C0A8D
:1029000001E184D00D0A63E0030A4CE0060A15E0F9
:10291000010A01E0DFD00FEC65F006C03BFE07C006
:102920003CFE180EE66E0E0EE66E0EEC57F0E5520B
:10293000E5520E01030E3F6FCDD01C0EE66E0E0E5B
:10294000E66E180EE66E0E0EE66E7BEC57F0E55264
:10295000E552E552E55200091AE10FEC65F00E016F
:102960003B51065C146E3C510758156E1450025DC5
:10297000155003590BE2060E275D06E2272BD8906F
:102980000237033704370537020E3F6FA3D0020E1C
:10299000F36E030EF3CFDBFF010EDB6A0E01050EB3
:1029A0003F6F98D0020EF36E030EF3CFDBFFDE52C3
:1029B000010EDD6E040E275D09E3040E276F200E65
:1029C000026FEF0E036F090E046F056B83D0020ECA
:1029D000275D09E2120EF36E030EF3CFDBFFDE522A
:1029E000010EDD6E12D040A70BD0140EF36E030E55
:1029F000F3CFDBFF010EF36E020EF3CFDBFF05D04A
:102A0000020EF36E030EF3CFDBFF64D0050E275DDD
:102A100009E2100EF36E030EF3CFDBFFDE52010E60
:102A2000DD6E07D0080E3F6F110EF36E030EF3CF6D
:102A3000DBFF50D0050E275D09E2110EF36E030E89
:102A4000F3CFDBFFDE52010EDD6E0AD0140EF36E03
:102A5000030EF3CFDBFF010EF36E020EF3CFDBFFAD
:102A600039D0140EF36E030EF3CFDBFF010EF36EBD
:102A7000020EF3CFDBFF2ED0050E275D09E2100E0C
:102A8000F36E030EF3CFDBFFDE52010EDD6E0AD0D4
:102A9000140EF36E030EF3CFDBFF010EF36E020E86
:102AA000F3CFDBFF17D0050E275D09E2110EF36EA1
:102AB000030EF3CFDBFFDE52010EDD6E0AD0140EE3
:102AC000F36E030EF3CFDBFF010EF36E020EF3CFB6
:102AD000DBFF00D0030EDB5057E0010EDB504CE073
:102AE000272BD890023703370437053731510E5D55
:102AF000146E0F513255156E040E14C0DBFF050E17
:102B000015C0DBFF31510E5D32510F590FE22951D3
:102B10002B5D146E2C512A55156ED950040FE96E99
:102B2000DACFEAFF1450EE261550ED22040EDBCF6B
:102B300014F0050EDBCF15F0166A176A1450065F05
:102B40001550075B1650085B1750095B040EDBCF6E
:102B500008F0050EDBCF09F00850142709501523A3
:102B600031CE0EFE32CE0FFEE66A030EDBCFE6FF5D
:102B7000E4D9E552E55208D0010EE66E030EDBCF34
:102B8000E6FFDBD9E552E552020EDB5002E09CEC99
:102B90001FF0DF2A80D4040EDB6A050EDB6A040E08
:102BA000DBCF14F0050EDBCF15F0030E145C000E26
:102BB000155801E3B1D0040EDBCFE9FF050EDBCFE2
:102BC000EAFF140EEA02F3CFEAFFE902F3CFE9FFCE
:102BD000F450EA26C40EE926020EEA22100EE92677
:102BE000000EEA22EE50ED1001E196D0040EDBCF8C
:102BF000E9FF050EDBCFEAFF140EEA02F3CFEAFF8E
:102C0000E902F3CFE9FFF450EA26C40EE926020EEA
:102C1000EA22120EE926000EEA22EECF16F0EFCFDE
:102C200017F016C0E6FF17C0E6FF0FEC65F0E5529F
:102C3000E7CF17F0E552E7CF16F01650065C146E9A
:102C400017500758156EDC0ED8801454010E155419
:102C50005DE2040EDBCF14F0050EDBCF15F0020EA3
:102C6000D8801456000E1556140E1502F3CF15F029
:102C70001402F3CF14F0F450152614C0E6FF15C06B
:102C8000E6FF010EE66EE76E040EDBCF16F0050ED2
:102C9000DBCF17F0E7501626000E1722140E17028E
:102CA000F3CF17F01602F3CF16F0F4501726C40E28
:102CB0001626020E172216C0E6FF17C0E6FF010E09
:102CC000E66E040EDBCF18F0050EDBCF19F0140E04
:102CD0001902F3CF19F01802F3CF18F0F4501926A7
:102CE000C40E1826020E192218C0E6FF19C0E6FF0E
:102CF0007FEC2CF01A6E080EE15E1A500201FC6B9C
:102D0000FD6B040EDB06050E01E2DB06040EDB2A7A
:102D1000050E01E3DB2A43D7060EE15C02E2E16A1D
:102D2000E552E16EE552E7CFD9FF1200D9CFE6FFB9
:102D3000E1CFD9FF250EE126FD0EDBCFE9FFFE0E28
:102D4000DBCFEAFF140EEECFDBFF150EEECFDBFF7D
:102D5000160EEECFDBFF170EEECFDBFFFB0EDBCF49
:102D6000E9FFFC0EDBCFEAFF180EEECFDBFF190EFA
:102D7000EECFDBFF1A0EEECFDBFF1B0EEECFDBFF3D
:102D80001C0EDB6A060EF36E1D0EF3CFDBFFF90E91
:102D9000DBCF08F0FA0EDBCF09F01E0E08C0DBFF18
:102DA0001F0E09C0DBFF1E0EDBCFE6FF1F0EDBCFC1
:102DB000E6FF7BEC4BF0E552E5521E0EF3CFDBFF56
:102DC0001F0EF4CFDBFF0C0EE66EE66AD950140F2F
:102DD000E66E000EDA20E66EF8EC4BF0E552E552B6
:102DE000E552E552F3CF14F0F4CF15F0141E151E82
:102DF000200E14C0DBFF210E15C0DBFFF90EDBCF68
:102E0000E6FFFA0EDBCFE6FFCEEC51F0E552E552DD
:102E1000220EF3CFDBFF230EF4CFDBFF200EDBCF40
:102E200014F0210EDBCF15F0220EDB50141803E155
:102E3000230EDB50151804E0FEEC4EF0010E71D0AD
:102E4000000EE66EE66A75EC5CF0E552E552140E93
:102E5000E66EE66AD9CFE6FFDACFE6FF12EC54F071
:102E6000E552E552E552E552D9CFE6FFDACFE6FF6B
:102E700084EC1EF0E552E552D9500C0FE96EDACF22
:102E8000EAFFEF50F00BE842E842E842E842040D66
:102E9000F350146E156A140E145E000E155A240EAB
:102EA00014C0DBFFDB50166E176AF90EDBCF08F09B
:102EB000FA0EDBCF09F01650085C146E1750095853
:102EC000156E140E145E000E155AF90E14C0DBFFB9
:102ED000FA0E15C0DBFFFD0EDBCFE6FFFE0EDBCFEB
:102EE000E6FFD9CFE6FFDACFE6FF75EC1BF0E5523F
:102EF000E552E552E552000910E0F90EDBCFE6FF9E
:102F0000FA0EDBCFE6FFD9CFE6FFDACFE6FF99EC8A
:102F100020F0E552E552E552E552FEEC4EF0010E8E
:102F200000D0146E250EE15C02E2E16AE552E16E2A
:102F30001450E552E7CFD9FF1200D9CFE6FFE1CF19
:102F4000D9FF280EE126A5EC00F0FE0EDBA004D090
:102F50000E014187FE0EDB900E01409B409D409F7D
:102F6000419341954191E1EC4EF0000901E1FBD71D
:102F7000FE0EDB50060B05E0260EDB6A270EDB6A31
:102F800057D10E010E512F1902E10F51301905E1F1
:102F9000260EDB6A270EDB6A2FD12F510E5D3051D2
:102FA0000F5952E20E512F5D146E30510F55156EB0
:102FB000260E14C0DBFF270E15C0DBFF260EDBCF6D
:102FC00014F0270EDBCF15F01450145D1550155971
:102FD00006E2260E14CEDBFF270E15CEDBFF260EF3
:102FE000DBCF14F0270EDBCF15F01450255D155004
:102FF000265907E2260E25CEDBFF270E26CEDBFF65
:103000004185260EDBCFE6FF270EDBCFE6FF44CE61
:10301000E6FF0ECEE6FF0FCEE6FFE66A050EE66E91
:103020000B0EE66E7FEC2CF0146E080EE15E145071
:10303000260EDBCF08F0270EDBCF09F008500E017B
:103040000E2709500F23D8D00E512B5D146E2C5132
:103050000F55156E240E14C0DBFF250E15C0DBFFC7
:10306000240EDB502F250001166E250EDB500E01BD
:1030700030210001176E0E012951165C146E2A5181
:103080001758156E260E14C0DBFF270E15C0DBFF88
:10309000260EDBCF14F0270EDBCF15F01450145D95
:1030A0001550155906E2260E14CEDBFF270E15CE5D
:1030B000DBFF260EDBCF14F0270EDBCF15F014500C
:1030C000255D1550265907E2260E25CEDBFF270E7B
:1030D00026CEDBFF4185240EDBCF14F0250EDBCF9F
:1030E00015F0260EDBCF16F0270EDBCF17F01450AD
:1030F000165C155017580CE2260EDBCF08F0270E91
:10310000DBCF09F0240E08C0DBFF250E09C0DBFF72
:10311000240EDBCFE6FF250EDBCFE6FF44CEE6FF35
:103120000ECEE6FF0FCEE6FFE66A050EE66E0B0E4C
:10313000E66E7FEC2CF0146E080EE15E1450260E45
:10314000DBCF16F0270EDBCF17F0240EDB50165C1A
:10315000146E250EDB501758156E240E14C0DBFFBD
:10316000250E15C0DBFFD950240FE96EDACFEAFF38
:10317000EE50ED1027E0240EDBCFE6FF250EDBCF6F
:10318000E6FF44CEE6FF29CEE6FF2ACEE6FFE66A5A
:103190000E010E512B5D146E2C510F55156E166AD3
:1031A000176A050E14260B0E1522000E1622172282
:1031B00014C0E6FF15C0E6FF7FEC2CF0186E080E79
:1031C000E15E1850260EDBCF08F0270EDBCF09F0AA
:1031D00008500E010E2709500F232B510E5D2C5164
:1031E0000F590AE329512B5D146E2C512A55156E87
:1031F00014500E5F15500F5B41A71AD0260EDBCF7F
:1032000014F0270EDBCF15F01451141802E11551FC
:1032100015180EE0260EDBCF16F0270EDBCF17F0C9
:103220002551161802E12651171802E0FE0EDB8028
:10323000D950260FE96EDACFEAFFEE50ED1004E127
:10324000FE0EDB50030B30E0260EDBCF08F0270E1E
:10325000DBCF09F008500E01145F0950155BD950FF
:10326000260FE96EDACFEAFFEE50ED1002E0FE0E17
:10327000DB86FD0EDBA007D0276BF20E026F9E0EE1
:10328000036F046B056BE8EC64F006500E01022539
:10329000376F07500321386F08500421396F0950E8
:1032A00005213A6F40893ED0FD0EDBA21FD0400EB3
:1032B000E96E0E0EEA6EEF50070BE82AF36EF3503C
:1032C000070BF36EF46EF80EEF14F310EF6EF4507C
:1032D0000E010607000E075B085B095B010EF36E2B
:1032E000260EF3CFDBFF270EDB6A1CD00E0140A9B0
:1032F00019D0DBB008D0275106E02707D890053356
:10330000043303330233E8EC64F006500E01022567
:10331000376F07500321386F08500421396F095067
:1033200005213A6F020E12CEDBFF030E13CEDBFF38
:10333000040E10CEDBFF050E11CEDBFF060E06CE0F
:10334000DBFF070E07CEDBFF080E08CEDBFF090E02
:1033500009CEDBFF0A0E0ACEDBFF0B0E0BCEDBFF26
:103360000C0E0CCEDBFF0D0E0DCEDBFF0F0EDB9C2B
:10337000DB9E0E0EDB90DB92DB94DB96FE0EDB50C9
:10338000E76E0F0EE7CFDBFF140EDB6A150EDB6A6C
:10339000260EDBCF14F0270EDBCF15F00001145002
:1033A0000E010627000115500E010723000E082309
:1033B0000923FE0EDBA21DD0DBB808D00A0EDB6AA3
:1033C0000B0EDB6A0C0EDB6A0D0EDB6A24A30BD03E
:1033D000D950060FE96EDACFEAFFEE06000EEE5A7C
:1033E000EE5AEE5A06D0062B000E072308230923B7
:1033F0002483FE0EDBB024813551335D36513459C0
:1034000019E32B512D5D166E2E512C55176E35512B
:10341000335D186E34513655196E1850165C146EA3
:1034200019501758156E100E14C0DBFF110E15C081
:10343000DBFF0FD03351355D146E36513455156EA8
:103440001406000E155A100E14C0DBFF110E15C025
:10345000DBFF46EC4FF0F3CFDEFFF4CFDDFFDECF36
:1034600014F0DDCF15F0400E145C000E155803E289
:10347000DE6ADD6A08D0D9CFE9FFDACFEAFF400E75
:10348000EE5E000EED5A100EDBCF14F0110EDBCF06
:1034900015F0DECF16F0DDCF17F01450165C155086
:1034A00017580AE2D9CFE9FFDACFEAFF100EEECFC4
:1034B000DBFF110EEDCFDBFFD950020FE66E000EE1
:1034C000DA20E66E84EC1EF0E552E552D950260F64
:1034D000E96EDACFEAFF140EEE26000EED220E0E94
:1034E000DB88DB9ADB8CDB9EFE0EDBA236D0D9506C
:1034F000260FE96EDACFEAFF040EEE26000EED226B
:10350000020EF36E160EF3CFDBFF040EF36E170EF2
:10351000F3CFDBFF020EF36E180EF3CFDBFFF36E7B
:10352000190EF3CFDBFF010E146ED9500E0FE96EAA
:10353000DACFEAFFEF50F00BE842E842E842E84217
:1035400014240F0BF36EF46EF346F346F346F34682
:103550000F0EEF14F310EF6EF4501A0E00C3DBFFE2
:103560001B0E01C3DBFF1C0E02C3DBFF1D0E03C3DA
:10357000DBFF1E0E18CEDBFF1F0E19CEDBFF200E69
:103580001ACEDBFF210E1BCEDBFF220EDB6A060EFE
:10359000F36E230EF3CFDBFF260EDBCF08F0270EF2
:1035A000DBCF09F0240E08C0DBFF250E09C0DBFFCE
:1035B000240EDBCFE6FF250EDBCFE6FF7BEC4BF0E6
:1035C000E552E552240EF3CFDBFF250EF4CFDBFFEF
:1035D0000C0EE66EE66AD9501A0FE66E000EDA207F
:1035E000E66EF8EC4BF0E552E552E552E552F3CFCA
:1035F00014F0F4CF15F0141E151E120E14C0DBFFCC
:10360000130E15C0DBFFDD0EE66E0A0EE66E27EC2C
:1036100051F0E552E552260EDBCFE6FF270EDBCF59
:10362000E6FF060EE66E180EE66E0E0EE66EC3ECB4
:103630005BF0146E050EE15E1450140EE66EE66A41
:10364000D950020FE66E000EDA20E66E6FEC54F0F1
:10365000E552E552E552E552FE0EDBA20FD0040E14
:10366000E66EE66AD950160FE66E000EDA20E66EB8
:103670006FEC54F0E552E552E552E552F10EE66E7C
:103680000A0EE66E4AEC51F0E552E552260EDBCF0B
:10369000E6FF270EDBCFE6FFCEEC51F0E552E55218
:1036A000F3CFDEFFF4CFDDFF010EE66E0B0EE66E0C
:1036B00027EC51F0E552E552020EE66EE66AD9CFEC
:1036C000E6FFDACFE6FF6FEC54F0E552E552E55243
:1036D000E552CCEC50F0280EE15C02E2E16AE552E2
:1036E000E16EE552E7CFD9FF1200D9CFE6FFE1CF77
:1036F000D9FF060EE126FD0EDBCFE9FFFE0EDBCF84
:10370000EAFF020EE926000EEA22EE50ED1002E179
:10371000000EEED2DE52FE0EDD6EFB0EDBCFE9FFB9
:10372000FC0EDBCFEAFF020EE926000EEA22EECF06
:103730001AF0EFCF1BF0FB0EDBCFE9FFFC0EDBCF67
:10374000EAFF1A50EE24186E1B50EE20196EFD0E83
:10375000DBCFE9FFFE0EDBCFEAFF1850EE24166E3A
:103760001950EE20176EFD0EDBCFE9FFFE0EDBCF0A
:10377000EAFF020EE926000EEA221650EE18146E39
:103780001750EE18156E020E14C0DBFF030E15C0A5
:10379000DBFFDF6ADF50146E156A090E145C000E41
:1037A000155872E2DFCFE6FF56EC00F0E5520D0E41
:1037B0000E013F5D02E166D029D0040E3F5D19E1A4
:1037C000FD0EDBCFE9FFFE0EDBCFEAFF020EE9269E
:1037D000000EEA22EECF14F0EFCF15F0145042198C
:1037E00002E11550431903E1010EDFCFDBFF4AD0A0
:1037F0000DD042CE14F043CE15F0020EDB5014185B
:1038000003E1030EDB50151801E03CD0A5EC00F0FD
:10381000FD0EDBCFE9FFFE0EDBCFEAFF020EE9264D
:10382000000EEA22EECF14F0EFCF15F00E01125188
:10383000141802E11351151825E1FD0EDBCFE9FF45
:10384000FE0EDBCFEAFFEECF16F0EFCF17F01051F0
:10385000161802E11151171815E1FB0EDBCFE9FF35
:10386000FC0EDBCFEAFFEE50181909E1EE501919F2
:1038700006E1EE501A1903E1EE501B1900E102E1D6
:10388000010E36D2DF2A86D7010EDB50FE0843E058
:10389000010EDBCFE6FF56EC00F0E552A5EC00F0A0
:1038A000010EDB50FE0837E0020EDBCF42FE030EB6
:1038B000DBCF43FE0A0EE66EE66AFB0EDBCFE6FFC9
:1038C000FC0EDBCFE6FF180EE66E0E0EE66EEFEC9A
:1038D00063F0146E060EE15E1450FD0EDBCFE9FFBF
:1038E000FE0EDBCFEAFFEECF10FEEDCF11FEFD0E98
:1038F000DBCFE9FFFE0EDBCFEAFF020EE926000E6A
:10390000EA22EECF12FEEDCF13FE29CE0EFE2ACE16
:103910000FFE010EEDD1FD0EDBCFE9FFFE0EDBCF7A
:10392000EAFF0D0EE926000EEA22EF50020B02E13B
:10393000000EDED10201FC51FD1102E0000ED8D1D3
:10394000040EDB6A050EDB6A040EDBCF14F0050EF5
:10395000DBCF15F0030E145C000E155801E3CFD039
:10396000040EDBCFE9FF050EDBCFEAFF140EEA02FF
:10397000F3CFEAFFE902F3CFE9FFF450EA26C40EE1
:10398000E926020EEA22100EE926000EEA22EE5087
:10399000ED1001E1B4D0040EDBCFE9FF050EDBCF63
:1039A000EAFF140EEA02F3CFEAFFE902F3CFE9FFE0
:1039B000F450EA26C40EE926020EEA22100EE92689
:1039C000000EEA22EECF14F0EFCF15F0FD0EDBCFA4
:1039D000E9FFFE0EDBCFEAFF020EE926000EEA2227
:1039E000EECF16F0EFCF17F01650141802E1175073
:1039F000151801E07ED0040EDBCFE9FF050EDBCF0A
:103A0000EAFF140EEA02F3CFEAFFE902F3CFE9FF7F
:103A1000F450EA26C40EE926020EEA220A0EE9262E
:103A2000000EEA22EECF14F0EFCF15F0FD0EDBCF43
:103A3000E9FFFE0EDBCFEAFFEECF16F0EFCF17F077
:103A40001650141802E11750151801E052D0FB0E61
:103A5000DBCFE9FFFC0EDBCFEAFFEECF14F0EECFB9
:103A600015F0EECF16F0EFCF17F0040EDBCFE9FF25
:103A7000050EDBCFEAFF140EEA02F3CFEAFFE902FC
:103A8000F3CFE9FFF450EA26C40EE926020EEA223B
:103A9000EE500001141809E1EE50151806E1EE5041
:103AA000161803E1EE50171800E101E022D00FECE8
:103AB00065F006C014F007C015F0040EDBCFE9FF77
:103AC000050EDBCFEAFF140EEA02F3CFEAFFE902AC
:103AD000F3CFE9FFF450EA26C40EE926020EEA22EB
:103AE000120EE926000EEA2214C0EEFF15C0EDFF0B
:103AF000FFD0040EDB2A050E01E3DB2A25D7DF6A9F
:103B0000DF50146E156A090E145C000E155801E39F
:103B1000EDD0DFCFE6FF56EC00F0E5520E0140A7F6
:103B2000E3D0A5EC00F0FD0EDBCFE9FFFE0EDBCF0E
:103B3000EAFF020EE926000EEA22EECF14F0EFCFE4
:103B400015F014500E01121902E11550131901E07D
:103B5000CBD00A0EE66EE66AFB0EDBCFE6FFFC0E6C
:103B6000DBCFE6FF040EDBCFE9FF050EDBCFEAFF7C
:103B7000140EEA02F3CFEAFFE902F3CFE9FFF450B3
:103B8000EA26C40EE926020EEA22E9CF14F0EACFB3
:103B900015F014C0E6FF15C0E6FFEFEC63F0166EFB
:103BA000060EE15E1650FD0EDBCFE9FFFE0EDBCF09
:103BB000EAFFEECF14F0EFCF15F0040EDBCFE9FFF4
:103BC000050EDBCFEAFF140EEA02F3CFEAFFE902AB
:103BD000F3CFE9FFF450EA26C40EE926020EEA22EA
:103BE0000A0EE926000EEA2214C0EEFF15C0EDFF12
:103BF000FD0EDBCFE9FFFE0EDBCFEAFF040EE92668
:103C0000000EEA22EECF14F0EECF15F0EECF16F054
:103C1000EFCF17F0040EDBCFE9FF050EDBCFEAFF95
:103C2000140EEA02F3CFEAFFE902F3CFE9FFF45002
:103C3000EA26C40EE926020EEA220C0EE926000E40
:103C4000EA2214C0EEFF15C0EEFF16C0EEFF17C04B
:103C5000EEFFFD0EDBCFE9FFFE0EDBCFEAFF020E2B
:103C6000E926000EEA22EECF14F0EFCF15F0040E95
:103C7000DBCFE9FF050EDBCFEAFF140EEA02F3CF3C
:103C8000EAFFE902F3CFE9FFF450EA26C40EE92681
:103C9000020EEA22100EE926000EEA2214C0EEFF00
:103CA00015C0EDFF0FEC65F006C014F007C015F06D
:103CB000040EDBCFE9FF050EDBCFEAFF140EEA02AC
:103CC000F3CFEAFFE902F3CFE9FFF450EA26C40E8E
:103CD000E926020EEA22120EE926000EEA2214C09C
:103CE000EEFF15C0EDFF04D0DF2A0AD7000E00D08A
:103CF000146E060EE15C02E2E16AE552E16E1450D8
:103D0000E552E7CFD9FF1200D9CFE6FFE1CFD9FFC7
:103D1000FD0EDBCFE9FFFE0EDBCFEAFFEECFE6FFC5
:103D2000EFCFE6FF7BEC4BF0E552E552F3CF14F01A
:103D3000F4CF15F0FD0EDBCFE9FFFE0EDBCFEAFF7F
:103D400014C0EEFF15C0EDFFFD0EDBCFE9FFFE0E48
:103D5000DBCFEAFF020EE926000EEA22EECFE6FFF5
:103D6000EFCFE6FF7BEC4BF0E552E552F3CF14F0DA
:103D7000F4CF15F0FD0EDBCFE9FFFE0EDBCFEAFF3F
:103D8000020EE926000EEA2214C0EEFF15C0EDFF78
:103D9000FD0EDBCFE9FFFE0EDBCFEAFF040EE926C6
:103DA000000EEA22EECFE6FFEECFE6FFEECFE6FF13
:103DB000EFCFE6FFA5EC4BF0E552E552E552E552B8
:103DC00006C014F007C015F008C016F009C017F0BF
:103DD000FD0EDBCFE9FFFE0EDBCFEAFF040EE92686
:103DE000000EEA2214C0EEFF15C0EEFF16C0EEFF73
:103DF00017C0EEFFFD0EDBCFE9FFFE0EDBCFEAFFC3
:103E0000080EE926000EEA22EECFE6FFEECFE6FF2F
:103E1000EECFE6FFEFCFE6FFA5EC4BF0E552E55223
:103E2000E552E55206C014F007C015F008C016F0C0
:103E300009C017F0FD0EDBCFE9FFFE0EDBCFEAFF76
:103E4000080EE926000EEA2214C0EEFF15C0EEFFB0
:103E500016C0EEFF17C0EEFFFD0EDBCFE9FFFE0E32
:103E6000DBCFEAFF0E0EE926000EEA22EECFE6FFD8
:103E7000EFCFE6FF7BEC4BF0E552E552F3CF14F0C9
:103E8000F4CF15F0FD0EDBCFE9FFFE0EDBCFEAFF2E
:103E90000E0EE926000EEA2214C0EEFF15C0EDFF5B
:103EA000FD0EDBCFE9FFFE0EDBCFEAFF100EE926A9
:103EB000000EEA22EECFE6FFEFCFE6FF7BEC4BF001
:103EC000E552E552F3CF14F0F4CF15F0FD0EDBCF41
:103ED000E9FFFE0EDBCFEAFF100EE926000EEA2214
:103EE00014C0EEFF15C0EDFFFD0EDBCFE9FFFE0EA7
:103EF000DBCFEAFF120EE926000EEA22EECFE6FF44
:103F0000EFCFE6FF7BEC4BF0E552E552F3CF14F038
:103F1000F4CF15F0FD0EDBCFE9FFFE0EDBCFEAFF9D
:103F2000120EE926000EEA2214C0EEFF15C0EDFFC6
:103F3000E552E7CFD9FF1200A5EC00F012CE42FE09
:103F400013CE43FE29CE2FFE2ACE30FE29CE31FEDF
:103F50002ACE32FE2BCE33FE2CCE34FE2BCE35FEB7
:103F60002CCE36FE0E014051080B02E0040E01D0AB
:103F70000D0E3F6F4091409340954099409B409D6E
:103F8000409F4191419341954197418924912493C8
:103F90002497249929CE0EFE2ACE0FFE0BEC46F074
:103FA000F3CF06FEF4CF07FE0BEC46F0F3CF08FE8E
:103FB000F4CF09FE0E0122692369010E146F156BFF
:103FC0001200D9CFE6FFE1CFD9FF040EE1260C0E97
:103FD000E66EE66A75EC5CF0E552E5520FEC54F0E3
:103FE000DF6EF00EDF14E840E8403F0B146E156AF8
:103FF000140E145E000E155A1450DF6EDF5005E1EA
:10400000180EF36E020EF46E8AD0070EE66EE66AA4
:10401000000EE66EE66A12EC54F0E552E552E55207
:10402000E552DF50DF06000975E00FEC54F0E76E53
:10403000010EE7CFDBFFDB5001E16CD0010EDB04AA
:1040400001E1EFD7010EDB50020845E1030EDF5C12
:1040500001E260D0020EDB6A030EDB6A0FEC54F063
:10406000E76E010EE7CFDBFFDB5004080CE10FEC3D
:1040700054F0E76E030EE7CFDBFF0FEC54F0E76E72
:10408000020EE7CFDBFF020EDBCF14F0030EDBCF17
:1040900015F0180E145C020E155801E23BD0D950F1
:1040A000020FE96EDACFEAFFB40ED880EE54050EA7
:1040B000ED5406E2B40EF36E050EF46E30D029D046
:1040C000020EDBCF14F0030EDBCF15F014C0F3FFAC
:1040D00015C0F4FF24D0020EDF5C01E21BD00FEC10
:1040E00054F0E76E010EE7CFDBFFDB50DF5C01E24F
:1040F00011D0010EDBCFE6FFE66A000EE66EE66A3F
:1041000012EC54F0E552E552E552E552010EDB5057
:10411000DF5E87D7180EF36E020EF46E00D0040E29
:10412000E15C02E2E16AE552E16EE552E7CFD9FFD8
:104130001200D9CFE6FFE1CFD9FF1C0EE126FD0E1C
:10414000DBCFE9FFFE0EDBCFEAFF0D0EE926000E06
:10415000EA220E0EEFCFDBFFFD0EDBCFE9FFFE0EF6
:10416000DBCFEAFF080EE926000EEA220F0EEECFA3
:10417000DBFF100EEECFDBFF110EEECFDBFF120EDA
:10418000EECFDBFFFD0EDBCFE9FFFE0EDBCFEAFF5C
:10419000040EE926000EEA22130EEECFDBFF140E0A
:1041A000EECFDBFF150EEECFDBFF160EEECFDBFF03
:1041B0000E0140914093409540B913D0E8EC64F073
:1041C00006C037FE07C038FE08C039FE09C03AFEF7
:1041D000740E0E013727350E3823060E3923000ED4
:1041E0003A233F51050A5CE0010A15E0FB0EDBCFE4
:1041F00008F0FC0EDBCF09F0170E08C0DBFF180E2D
:1042000009C0DBFF0E0EDBA0EAD0170EDB2A180E6A
:1042100001E2E5D0E3D00E0EDBA403D08DDED5EFB6
:104220002AF0DBA816D00F0EDBCF06FE100EDBCF78
:1042300007FE110EDBCF08FE120EDBCF09FEE66A89
:10424000040EE66E9DEC17F0E552E55275DED5EFF3
:104250002AF0DBA222D0130EDBCF0AFE140EDBCF36
:104260000BFE150EDBCF0CFE160EDBCF0DFE0A2B60
:10427000000E0B230C230D23A4DEF3CF25FEF4CF79
:1042800026FE010EE66E120EE66E9DEC17F0E5526C
:10429000E5520E01060E3F6F01D04EDED5EF2AF03B
:1042A0000E0EDBA402D0D5EF2AF0DBA840D0D95007
:1042B0000F0FE96EDACFEAFFEE50061909E1EE5072
:1042C000071906E1EE50081903E1EE50091900E163
:1042D0002EE0130E06CEDBFF140E07CEDBFF150E0D
:1042E00008CEDBFF160E09CEDBFF0F0EDBCF06FE7E
:1042F000100EDBCF07FE110EDBCF08FE120EDBCF58
:1043000009FE010EE66E040EE66E9DEC17F0E55216
:10431000E552130EDBCF06FE140EDBCF07FE150EA3
:10432000DBCF08FE160EDBCF09FED5EF2AF00E0E0E
:10433000DBA252D0130EDBCF0AFE140EDBCF0BFE36
:10434000150EDBCF0CFE160EDBCF0DFE0A2B000E7A
:104350000B230C230D23FD0EDBCFE9FFFE0EDBCF7D
:10436000EAFF0E0EE926000EEA22EECF14FEEDCF94
:1043700015FE27DEF3CF25FEF4CF26FE0E0EDBA8BA
:1043800020D0010EE66E100EE66E9DEC17F0E552A1
:10439000E5520E01070E3F6FE8EC64F006C037FEF1
:1043A00007C038FE08C039FE09C03AFE740E0E017F
:1043B0003727350E3823060E3923000E3A2340994D
:1043C0000BD0010EE66E120EE66E9DEC17F0E55274
:1043D000E5520E01060E3F6FD5EF2AF0DB2A0E0ED6
:1043E000DBA205D0170EDB2A180E01E3DB2A3551BC
:1043F000335D3651345919E32B512D5D166E2E5114
:104400002C55176E3551335D186E34513655196E73
:104410001850165C146E19501758156E0C0E14C0F7
:10442000DBFF0D0E15C0DBFF0FD03351355D146E71
:1044300036513455156E1406000E155A0C0E14C064
:10444000DBFF0D0E15C0DBFFD950130FE96EDACF7D
:10445000EAFF0A51EE5C146E0B51EE58156E0C51CA
:10446000EE58166E0D51EE58176E060E14C0DBFF97
:10447000070E15C0DBFF080E16C0DBFF090E17C0C4
:10448000DBFF060EDBCF08F0070EDBCF09F00A0ECC
:1044900008C0DBFF0B0E09C0DBFF190EDB6AD95029
:1044A000170FE96EDACFEAFFEE50ED1001E1C3D04D
:1044B000D9500C0FE96EDACFEAFFEE50ED1001E1B2
:1044C000B9D0D950060FE96EDACFEAFFD890030EC3
:1044D000EB50000A08E6000EEE5C000EEE58000EEF
:1044E000EE58000EEE581CE30C0EDBCF14F00D0E50
:1044F000DBCF15F0166A176AD950060FE96EDACFCE
:10450000EAFF1450EE5C1550EE581650EE58175056
:10451000EE5806E2010EF36E190EF3CFDBFF53D017
:10452000170EDBCF14F0180EDBCF15F0166A176AE2
:10453000D950060FE96EDACFEAFFEE501426EE509E
:104540001522EE501622EE5017221734000E1718BF
:1045500009E6D880000E1454000E1554000E1654AF
:10456000000E175430E20C0EDBCF1CF00D0EDBCF2B
:104570001DF0170EDB501C5C186E180EDB501D581A
:10458000196E1A6A1B6A19AE02D01A681B68D950D4
:10459000060FE96EDACFEAFF030EEBCFF3FF1B50F5
:1045A000F318E8AE02D0F33408D0EE50185CEE50A9
:1045B0001958EE501A58EE501B5805E3010EF36ED1
:1045C000190EF3CFDBFF0C0EDBCF14F00D0EDBCF9B
:1045D00015F0166A176AD950060FE96EDACFEAFFAE
:1045E000030EEB501718E8AE02D0173408D0145061
:1045F000EE5C1550EE581650EE581750EE581AE271
:10460000170EDBCF1AF0180EDBCF1BF00A0EDB50B3
:104610001A24186E0B0EDB501B20196E193404E29D
:1046200018500008000E195405E2010EF36E190E21
:10463000F3CFDBFF45D0060EDBCF14F0070EDBCF48
:1046400015F0080EDBCF16F0090EDBCF17F0145073
:1046500015101610171006E1010EF36E190EF3CFA8
:10466000DBFF2ED0D950060FE96EDACFEAFFD890E3
:10467000030EEB50000A08E6000EEE5C000EEE584A
:10468000000EEE58000EEE581BE30C0EDBCF14F0BC
:104690000D0EDBCF15F0166A176AD950060FE96EBA
:1046A000DACFEAFF1450EE5C1550EE581650EE5873
:1046B0001750EE5805E2010EF36E190EF3CFDBFF33
:1046C000190EDB500DE10E0EDBB408D0010EE66EC4
:1046D000100EE66E9DEC17F0E552E552D5EF2AF08C
:1046E0000E0EDB50060B03E027DCD5EF2AF00E0E92
:1046F000DBB802D0D5EF2AF03F510C0A01E129D3F3
:104700000B0A4DE00F0A4BE0010A49E0020A47E0BC
:10471000010A45E00C0A01E03FD3D9500F0FE96EC2
:10472000DACFEAFFEE50061909E1EE50071906E16B
:10473000EE50081903E1EE50091900E12EE0130EC6
:1047400006CEDBFF140E07CEDBFF150E08CEDBFF17
:10475000160E09CEDBFF0F0EDBCF06FE100EDBCFF1
:1047600007FE110EDBCF08FE120EDBCF09FE010E95
:10477000E66E040EE66E9DEC17F0E552E552130E60
:10478000DBCF06FE140EDBCF07FE150EDBCF08FED7
:10479000160EDBCF09FED5EF2AF0070E3F6F0E5144
:1047A0002F5D146E30510F55156E040E14C0DBFFD3
:1047B000050E15C0DBFF040EDBCF14F0050EDBCFBA
:1047C00015F00001800E151410E00E0129512B5D2B
:1047D000146E2C512A55156ED950040FE96EDACF9C
:1047E000EAFF1450EE261550ED22040EDBCF14F034
:1047F000050EDBCF15F0166A176A060EE96E0E0E6F
:10480000EA6EEE501426EE501522EE501622EE50AF
:10481000172214C0DFFF010E15C0DBFF020E16C009
:10482000DBFF030E17C0DBFF0F0EDBCF18F0100EFF
:10483000DBCF19F0110EDBCF1AF0120EDBCF1BF01D
:10484000D9CFE9FFDACFEAFFEE50185C146EEE50D4
:104850001958156EEE501A58166EEE501B58176EFA
:1048600014C0DFFF010E15C0DBFF020E16C0DBFF18
:10487000030E17C0DBFFDECF07F0DECF08F0DECF80
:1048800009F0DDCF0AF0DD52DD520A34000E0A18BD
:1048900009E6D880000E0754000E0854000E095493
:1048A000000E0A5425E20E012451010B0DE0D9CF70
:1048B000E9FFDACFEAFF010EEE1805E1EE5003E161
:1048C000EE5001E1EE500AE0E66A100EE66E9DEC55
:1048D00017F0E552E552D5EF2AF00AD0D9500F0F64
:1048E000E96EDACFEAFFEE06000EEE5AEE5AEE5A05
:1048F0000E0131510E5D186E0F513255196E1A6A44
:104900001B6A19AE02D01A681B681850065D146E37
:1049100019500759156E1A500859166E1B5009592F
:10492000176E14C0DFFF010E15C0DBFF020E16C0AC
:10493000DBFF030E17C0DBFF31510E5D32510F5903
:1049400014E229512B5D146E2C512A55156E166AEE
:10495000176AD9CFE9FFDACFEAFF1450EE5E15509F
:10496000EE5A1650EE5A1750EE5A0F0EDBCF18F0D3
:10497000100EDBCF19F0110EDBCF1AF0120EDBCFC9
:104980001BF0D9CFE9FFDACFEAFFEE50185C146EC6
:10499000EE501958156EEE501A58166EEE501B5800
:1049A000176E14C0DFFF010E15C0DBFF020E16C02C
:1049B000DBFF030E17C0DBFFDECF07F0DECF08F012
:1049C000DECF09F0DDCF0AF0DD52DD520A34000EF1
:1049D0000A1809E6D880000E0754000E0854000E8D
:1049E0000954000E0A5401E3A2D029512B5D146E24
:1049F0002C512A55156E166A176AD9CFE9FFDACFFE
:104A0000EAFFEE50145CEE501558EE501658EE507A
:104A1000175801E28CD0249724994191040E31CE8D
:104A2000DBFF050E32CEDBFFD9CFE9FFDACFEAFF9D
:104A3000EE503127EE503223040EDBCF14F0050E7A
:104A4000DBCF15F014500E5D15500F591BE331519B
:104A50000E5D32510F5915E20E51315D146E325117
:104A60000F55156E000114500E0106270001155058
:104A70000E010723000E0823092331CE0EFE32CE8D
:104A80000FFE36D029512B5D166E2C512A55176E0C
:104A90000E511624146E0F511720156E040E14C0FB
:104AA000DBFF050E15C0DBFF040EDBCF14F0050E97
:104AB000DBCF15F03151145C3251155819E2040E58
:104AC000DB50315D0001146E050EDB500E013259D2
:104AD0000001156E14500E010627000115500E013D
:104AE0000723000E0823092331CE0EFE32CE0FFE1F
:104AF0002B51315D2C5132590AE329512B5D146E33
:104B00002C512A55156E1450315F1550325B2B51C4
:104B10000E5D2C510F590AE329512B5D146E2C5157
:104B20002A55156E14500E5F15500F5B3ED00E5176
:104B3000311902E10F51321938E024A735D024A9E8
:104B400032D031510E5D146E0F513255156E166A0A
:104B5000176A15AE02D0166817681450065F155014
:104B6000075B1650085B1750095B31510E5D3251DF
:104B70000F5914E229512B5D146E2C512A55156ED4
:104B8000166A176A15AE02D0166817681450065FC9
:104B90001550075B1650085B1750095B31CE0EFEAF
:104BA00032CE0FFE4185248924872F51311902E12D
:104BB000305132192EE141B715D0E8EC64F006C04F
:104BC00037FE07C038FE08C039FE09C03AFE740E31
:104BD0000E013727350E3823060E3923000E3A23EF
:104BE000409917D0D9500F0FE96EDACFEAFF06517E
:104BF000EE1809E10751EE1806E10851EE1803E13D
:104C00000951EE1800E105E12451010B02E0409941
:104C10004197D9500F0FE96EDACFEAFFEE50065DEB
:104C2000166EEE500759176EEE500859186EEE507A
:104C30000959196EFD0EDBCFE9FFFE0EDBCFEAFF4F
:104C40000E0EE926000EEA221650EE5C146E175086
:104C5000EE58156E1A0E14C0DBFF1B0E15C0DBFFDD
:104C60001451151109E1D9501A0FE96EDACFEAFF94
:104C7000EE50ED1001E041831A0EDBCF14FE1B0E47
:104C8000DBCF15FE080E3F5D2CE1D9500F0FE96E0A
:104C9000DACFEAFF0651EE1809E10751EE1806E1F6
:104CA0000851EE1803E10951EE1800E119E1245111
:104CB000010B16E0E8EC64F006C037FE07C038FED2
:104CC00008C039FE09C03AFEBA0E0E0137271A0E87
:104CD0003823030E3923000E3A234089090E3F6F13
:104CE00037D0090E3F5D1BE10E0EDBB017D00F0E63
:104CF000DBCF06FE100EDBCF07FE110EDBCF08FE6A
:104D0000120EDBCF09FEE66A140EE66E9DEC17F07C
:104D1000E552E5529CEC1FF0D5EF2AF019D00A0EAF
:104D20003F5D16E1D9500F0FE96EDACFEAFF065169
:104D3000EE1809E10751EE1806E10851EE1803E1FB
:104D40000951EE1800E102E19CEC1FF0D5EF2AF0CA
:104D500024D006CE14F007CE15F008CE16F009CEFA
:104D600017F0142A000E152216221722D9500F0F01
:104D7000E96EDACFEAFF1450EE1809E11550EE188B
:104D800006E11650EE1803E11750EE1800E102E1BB
:104D90009CEC1FF0D5EF2AF000D00E0EDBAA02D05B
:104DA000D5EF2AF00B0E3F5D02E1D5EF2AF00A0E97
:104DB0003F5D02E1D5EF2AF00C0E3F5D02E1D5EF39
:104DC0002AF0D950FB0FE96EFF0EDA20EA6EEE50A2
:104DD000ED1001E131D30A0EDBCF14F00B0EDBCF67
:104DE00015F0153404E214500008000E155401E2C9
:104DF00050D1FD0EDBCFE9FFFE0EDBCFEAFF0C0E3C
:104E0000E926000EEA22EF50F00BE842E842E842C1
:104E1000E842040DF350166E176A0A0EDB50165C5A
:104E2000146E0B0EDB501758156E14C0E6FF15C03C
:104E3000E6FF75EC5CF0E552E5520A0EDBCF14F0AC
:104E40000B0EDBCF15F0D950FB0FE96EFF0EDA2009
:104E5000EA6E1450EE261550ED22FB0EDBCF14F057
:104E6000FC0EDBCF15F00C0EDBCF16F00D0EDBCFFA
:104E700017F01450165C155017580CE20C0EDBCFCF
:104E800008F00D0EDBCF09F0FB0E08C0DBFFFC0EB7
:104E900009C0DBFFFB0EDBCF14F0FC0EDBCF15F0FF
:104EA000000114500E010A27000115500E010B23BA
:104EB000000E0C230D23FB0EDB5033250001146E76
:104EC000FC0EDB500E0134210001156E0E01145052
:104ED0002D5D15502E595CE233512D5D146E2E510F
:104EE0003455156E010E1426000E1522040E14C042
:104EF000DBFF050E15C0DBFF040EDBCFE6FF050E62
:104F0000DBCFE6FFE66AE668E66844CEE6FF33CE2E
:104F1000E6FF34CEE6FF7FEC2CF0146E080EE15E67
:104F20001450FB0EDBCF16F0FC0EDBCF17F0040E97
:104F3000DB50165C146E050EDB501758156E14C04E
:104F4000E6FF15C0E6FFE66AE668E66844CEE6FFDF
:104F50002BCEE6FF2CCEE6FF7FEC2CF0186E080E71
:104F6000E15E1850FB0EDBCF16F0FC0EDBCF17F026
:104F7000040EDB50165C146E050EDB501758156ED0
:104F80000E012B511424336F2C511520346F20D077
:104F9000FB0EDBCFE6FFFC0EDBCFE6FFE66AE66842
:104FA000E66844CEE6FF33CEE6FF34CEE6FF7FEC84
:104FB0002CF0146E080EE15E1450FB0EDBCF08F0EF
:104FC000FC0EDBCF09F008500E01332709503423C3
:104FD000221D01E1231D5CE0FB0EDBCF08F0FC0E7F
:104FE000DBCF09F00850225F0950235B16512225C0
:104FF000146E17512321156E040E14C0DBFF050E2D
:1050000015C0DBFF040EDBCF14F0050EDBCF15F06F
:105010000001800E151404E00E012269236938D0C6
:105020000E01233504E222510008000E235530E31F
:10503000040EDBCF14F0050EDBCF15F00001145089
:105040000E010A27000115500E010B23000E0C2340
:105050000D23040EDBCF08F0050EDBCF09F008505E
:1050600033270950342333512D5D34512E590EE22C
:105070002B512D5D146E2E512C55156E010E1426DC
:10508000000E15221450335F1550345B22692369DA
:10509000D3D10A0EDBCF14F00B0EDBCF15F0153495
:1050A00004E214500008000E155401E3C5D10A0EA5
:1050B000DBCF16F00B0EDBCF17F0FB0EDB50162408
:1050C000146EFC0EDB501720156E0C0EDBCF18F0A3
:1050D0000D0EDBCF19F01450185C1550195814E25E
:1050E0000C0EDBCF16F00D0EDBCF17F00A0EDB50E7
:1050F000165C146E0B0EDB501758156EFB0E14C0A9
:10510000DBFFFC0E15C0DBFFFD0EDBCFE9FFFE0E63
:10511000DBCFEAFF0C0EE926000EEA22EF50F00B7F
:10512000E842E842E842E842040DF350E66EE66ADF
:1051300075EC5CF0E552E5520A0EDB500E013325AA
:105140000001166E0B0EDB500E0134210001176EAC
:10515000FB0EDB501624146EFC0EDB501720156E70
:105160000E0114502D5D15502E5901E395D0335189
:105170002D5D166E2E513455176E010E1626000E3B
:1051800017220A0EDB50165C146E0B0EDB501758FC
:10519000156E040E14C0DBFF050E15C0DBFF040EF8
:1051A000DBCF14F0050EDBCF15F00001800E1514D7
:1051B00041E1040EDBCFE6FF050EDBCFE6FFE66A3A
:1051C000E668E66844CEE6FF0A0EDB500E013325A2
:1051D0000001146E0B0EDB500E0134210001156E20
:1051E00014C0E6FF15C0E6FF8ADB166E080EE15E0E
:1051F0001650FB0EDBCF16F0FC0EDBCF17F0040EC3
:10520000DB50165C146E050EDB501758156E14C07B
:10521000E6FF15C0E6FFE66AE668E66844CEE6FF0C
:105220002BCEE6FF2CCEE6FF6ADB186E080EE15EA1
:10523000185031D0FB0EDBCFE6FFFC0EDBCFE6FFD4
:10524000E66AE668E66844CEE6FF0A0EDB500E0129
:1052500033250001166E0B0EDB500E0134210001C8
:10526000176E0E012B512D5D186E2E512C55196E97
:10527000010E1826000E19221850165C146E1950D3
:105280001758156E14C0E6FF15C0E6FF38DB1A6E1E
:10529000080EE15E1A501FD0FB0EDBCFE6FFFC0EBE
:1052A000DBCFE6FFE66AE668E66844CEE6FF0A0E74
:1052B000DB5033250001146E0B0EDB500E01342140
:1052C0000001156E14C0E6FF15C0E6FF18DB166E70
:1052D000080EE15E16500E01221D01E1231D0DE1B5
:1052E0000A0EDBCF22FE0B0EDBCF23FEFB0EDBCF45
:1052F00016FEFC0EDBCF17FE9FD00A0EDBCF14F09C
:105300000B0EDBCF15F02251145C235115584CE2E3
:10531000FB0EDBCF16F0FC0EDBCF17F00A0EDB50D6
:105320001624146E0B0EDB501720156E2251162515
:10533000186E23511721196E1450185C1550195806
:1053400013E3FB0EDBCF1CF0FC0EDBCF1DF00A0ECF
:10535000DB501C241A6E0B0EDB501D201B6E2251DD
:105360001A5C23511B5807E2FB0EDBCF16FEFC0E26
:10537000DBCF17FE12D022511625146E23511721B0
:10538000156E0A0EDB500001145C0E01166F0B0E39
:10539000DB50000115580E01176F0A0EDBCF22FEFD
:1053A0000B0EDBCF23FE48D0FB0EDBCF16F0FC0E3E
:1053B000DBCF17F00A0EDB501624146E0B0EDB50F9
:1053C0001720156E22511625186E23511721196EBC
:1053D0001450185C155019582FE20A0EDBCF14F048
:1053E0000B0EDBCF15F022511625166E2351172117
:1053F000176E1450165C155017581EE3FB0EDBCFCA
:105400001AF0FC0EDBCF1BF00A0EDB501A24186ECC
:105410000B0EDB501B20196E2251185C166E2351A7
:105420001958176E1651165C146E17511758156ED1
:105430001450162715501723D950170FE96EDACFDD
:10544000EAFFEE50ED1023E0070E3F5D04E033CE9F
:1054500035FE34CE36FE40AF0BD0010EE66E100E98
:10546000E66E9DEC17F0E552E552A5EC00F00FD08A
:10547000408F40BD0CD0408D0FEC65F006C03DFE66
:1054800007C03EFE0F0E0E013D27000E3E230E0EFE
:10549000DBA08BD00ACE14F00BCE15F00CCE16F09C
:1054A0000DCE17F0142A000E152216221722170E01
:1054B000DBCF18F0180EDBCF19F01A6A1B6AD9502F
:1054C000130FE96EDACFEAFFEE501826EE501922DC
:1054D000EE501A22EE501B221450181809E11550F4
:1054E000191806E116501A1803E117501B1800E1AD
:1054F0005CE10E010A2B000E0B230C230D233F5100
:10550000090A40E0010A1EE00F0A0EE0010A01E06C
:1055100043D00C0E3F6F010EE66E110EE66E9DEC51
:1055200017F0E552E55241D00B0E3F6F0FEC65F0DE
:1055300006C03DFE07C03EFE1F0E0E013D27000EB9
:105540003E232BD0D9500F0FE96EDACFEAFF065178
:10555000EE1809E10751EE1806E10851EE1803E1D3
:105560000951EE1800E10BE1E66A100EE66E9DECC3
:1055700017F0E552E5529CEC1FF017D002D00A0E4E
:105580003F6F0BD0E66A100EE66E9DEC17F0E55209
:10559000E5529CEC1FF009D000D0010EE66E100E13
:1055A000E66E9DEC17F0E552E5521C0EE15C02E25E
:1055B000E16AE552E16EE552E7CFD9FF1200D9CF9B
:1055C000E6FFE1CFD9FF060EE126FE0EDB50146E9A
:1055D000156A090E145C000E155802E3000E83D103
:1055E000FE0EDBCFE6FF56EC00F0E552D950FC0F83
:1055F000E96EFF0EDA20EA6EEE50ED1007E1010EC3
:10560000F36EFC0EF3CFDBFFFD0EDB6A0E012951BA
:105610002D5D146E2E512A55156E1406000E155A66
:1056200014C0DEFF15C0DDFFFA0EDBCF16F0FB0E57
:10563000DBCF17F0FC0EDB501624146EFD0EDB5092
:105640001720156EDECF18F0DDCF19F01450185C5E
:105650001550195802E2000E46D1A5EC00F0F90EE3
:10566000DB50030B03E1F90EDB80DB82FA0EDBCFAC
:1056700008F0FB0EDBCF09F0040E08C0DBFF050EBF
:1056800009C0DBFFFA0EDBCF16F0FB0EDBCF17F005
:10569000FC0EDB501624146EFD0EDB501720156E29
:1056A000D9CFE9FFDACFEAFF1450EE5E1550ED5A7C
:1056B000F90EDBA220D0DBA011D0DECF14F0DDCFBD
:1056C00015F0D89015321432D950040FE96EDACFA4
:1056D000EAFF1450EE261550ED220DD0DECF14F067
:1056E000DDCF15F0D950040FE96EDACFEAFF145080
:1056F000EE261550ED22040EDB500E012925000187
:10570000146E050EDB500E012A210001156E010EEC
:105710001426000E152214C0DEFF15C0DDFF020E98
:1057200033CEDBFF030E34CEDBFF0E01221D01E181
:10573000231D2DE022511625146E23511721156EBD
:10574000D950020FE96EDACFEAFF1450EE26155059
:10575000ED22020EDBCF14F0030EDBCF15F0145058
:105760002D5D15502E5913E22B512D5D146E2E51C7
:105770002C55156E010E1426000E1522D950020F5D
:10578000E96EDACFEAFF1450EE5E1550ED5A020EC4
:10579000DBCF14F0030EDBCF15F01450355D155040
:1057A000365918E2DECF14F0DDCF15F01450355D18
:1057B000155036590EE2F90EDBA403D0000E93D03B
:1057C00008D0DECF35FEDDCF36FEDECF33FEDDCFB7
:1057D00034FE2BD0020EDBCF14F0030EDBCF15F01E
:1057E0003551145C3651155818E2DECF14F0DDCF78
:1057F00015F014502B5D15502C590EE2F90EDBA458
:1058000003D0000E70D008D0DECF35FEDDCF36FEDF
:10581000DECF33FEDDCF34FE08D0DECF35FEDDCF68
:1058200036FEDECF33FEDDCF34FE020EDBCF14F0CA
:10583000030EDBCF15F00E013551145C36511558AF
:1058400035E2F90EDB50040B31E0020EDBCF08F03D
:10585000030EDBCF09F02B51085C146E2C51095854
:10586000156E14C0E6FF15C0E6FF44CEE6FF2BCE52
:10587000E6FF2CCEE6FF44CEE6FFDECFE6FFDDCF2F
:10588000E6FF3DD8166E080EE15E16500E0135514A
:10589000335D365134590AE2DE502B5D146EDD5013
:1058A0002C59156E1450335F1550345BDECF2BFE30
:1058B000DDCF2CFE29CE0EFE2ACE0FFE29CE31FEE4
:1058C0002ACE32FE29CE2FFE2ACE30FE070E3F5DB5
:1058D00008E1010EE66E100EE66E9DEC17F0E55243
:1058E000E552010E00D0146E060EE15C02E2E16AA0
:1058F000E552E16E1450E552E7CFD9FF1200D9CF3F
:10590000E6FFE1CFD9FFF90EDB504CE0010A01E0E0
:1059100097D0FC0EDB501CE0010A01E042D0F70EEC
:10592000DBCFE6FFF80EDBCFE6FFFA0EDBCFE6FFBC
:10593000FB0EDBCFE6FFFD0EDBCFE6FFFE0EDBCF7F
:10594000E6FFEFEC63F0146E060EE15E145029D012
:10595000D950FD0FE96EFF0EDA20EA6EFF0EEE1849
:1059600002E1FF0EED180AE0FD0EDBCFE6FFFE0EB2
:10597000DBCFE6FF27EC51F0E552E552F70EDBCF27
:10598000E6FFF80EDBCFE6FFFA0EDBCFE6FFFB0EFD
:10599000DBCFE6FF6FEC54F0E552E552E552E552FD
:1059A00000D04ED0FC0EDB502CE0010A01E047D0C5
:1059B000D950FA0FE96EFF0EDA20EA6EFF0EEE18EC
:1059C00002E1FF0EED180AE0FA0EDBCFE6FFFB0E58
:1059D000DBCFE6FF4AEC51F0E552E552F70EDBCFA4
:1059E000E6FFF80EDBCFE6FFFD0EDBCFE6FFFE0E97
:1059F000DBCFE6FF12EC54F0E552E552E552E552FA
:105A00001ED0F70EDBCFE6FFF80EDBCFE6FFFA0E77
:105A1000DBCFE6FFFB0EDBCFE6FFFD0EDBCFE6FFC5
:105A2000FE0EDBCFE6FFD0EC52F0146E060EE15E08
:105A3000145008EC54F0000901E1FBD700D000D06D
:105A4000E552E7CFD9FF1200D9CFE6FFE1CFD9FF6A
:105A5000120EE126FC0EDB5023E0010A01E0B1D07A
:105A6000F80EDBCFE6FFF90EDBCFE6FFFA0EDBCF59
:105A700014F0FB0EDBCF15F0166A14C0E6FF15C05C
:105A8000E6FF16C0E6FFFD0EDBCFE6FFFE0EDBCF26
:105A9000E6FF1AEC64F0176E070EE15E175091D026
:105AA000D950FD0FE96EFF0EDA20EA6EFF0EEE18F8
:105AB00002E1FF0EED180AE0FD0EDBCFE6FFFE0E61
:105AC000DBCFE6FF27EC51F0E552E552100EF36E06
